{
  "contractName": "BooleanFlipper",
  "abi": [
    {
      "inputs": [],
      "stateMutability": "nonpayable",
      "type": "constructor"
    },
    {
      "anonymous": false,
      "inputs": [
        {
          "indexed": false,
          "internalType": "bool",
          "name": "newState",
          "type": "bool"
        },
        {
          "indexed": false,
          "internalType": "address",
          "name": "flipper",
          "type": "address"
        }
      ],
      "name": "StateFlipped",
      "type": "event"
    },
    {
      "inputs": [],
      "name": "flip",
      "outputs": [],
      "stateMutability": "nonpayable",
      "type": "function"
    },
    {
      "inputs": [],
      "name": "getState",
      "outputs": [
        {
          "internalType": "bool",
          "name": "",
          "type": "bool"
        }
      ],
      "stateMutability": "view",
      "type": "function"
    },
    {
      "inputs": [],
      "name": "owner",
      "outputs": [
        {
          "internalType": "address",
          "name": "",
          "type": "address"
        }
      ],
      "stateMutability": "view",
      "type": "function"
    },
    {
      "inputs": [],
      "name": "state",
      "outputs": [
        {
          "internalType": "bool",
          "name": "",
          "type": "bool"
        }
      ],
      "stateMutability": "view",
      "type": "function"
    }
  ],
  "bytecode": "0x608060405234801561001057600080fd5b50d3801561001d57600080fd5b50d2801561002a57600080fd5b5033600060016101000a81548173ffffffffffffffffffffffffffffffffffffffff021916908373ffffffffffffffffffffffffffffffffffffffff16021790555060008060006101000a81548160ff02191690831515021790555061027c806100956000396000f3fe608060405234801561001057600080fd5b50d3801561001d57600080fd5b50d2801561002a57600080fd5b50600436106100665760003560e01c80631865c57d1461006b5780638da5cb5b14610089578063c19d93fb146100a7578063cde4efa9146100c5575b600080fd5b6100736100cf565b60405161008091906101c4565b60405180910390f35b6100916100e5565b60405161009e91906101a9565b60405180910390f35b6100af61010b565b6040516100bc91906101c4565b60405180910390f35b6100cd61011c565b005b60008060009054906101000a900460ff16905090565b600060019054906101000a900473ffffffffffffffffffffffffffffffffffffffff1681565b60008054906101000a900460ff1681565b60008054906101000a900460ff16156000806101000a81548160ff0219169083151502179055507fd29337c66b733d55c0bafac0bf2f7922088adc0cdea71c236a4c7b331c01696660008054906101000a900460ff16336040516101819291906101df565b60405180910390a1565b61019481610208565b82525050565b6101a38161021a565b82525050565b60006020820190506101be600083018461018b565b92915050565b60006020820190506101d9600083018461019a565b92915050565b60006040820190506101f4600083018561019a565b610201602083018461018b565b9392505050565b600061021382610226565b9050919050565b60008115159050919050565b600073ffffffffffffffffffffffffffffffffffffffff8216905091905056fea26474726f6e58221220c38b4c681dcd2adba4670f4d37b6412f85ba1fbc0f5f86d76ca255f27c8afdc164736f6c63430008060033",
  "source": "// SPDX-License-Identifier: MIT\npragma solidity >=0.4.22 <0.9.0;\n\ncontract BooleanFlipper {\n    bool public state;\n    address public owner;\n    \n    event StateFlipped(bool newState, address flipper);\n    \n    constructor() {\n        owner = msg.sender;\n        state = false;\n    }\n    \n    function flip() public {\n        state = !state;\n        emit StateFlipped(state, msg.sender);\n    }\n    \n    function getState() public view returns (bool) {\n        return state;\n    }\n}",
  "sourcePath": "/home/ubu24/1inch/tron/contracts/flipper.sol",
  "compiler": {
    "name": "solc",
    "version": "0.8.6+commit.0e36fba0.mod.Emscripten.clang"
  },
  "schemaVersion": "2.0.1",
  "updatedAt": "2025-07-27T15:54:12.871Z"
}