{
  "contractName": "HTLCEscrow",
  "abi": [
    {
      "inputs": [
        {
          "internalType": "bytes32",
          "name": "_hashlock",
          "type": "bytes32"
        },
        {
          "internalType": "uint256",
          "name": "_timelock",
          "type": "uint256"
        }
      ],
      "stateMutability": "payable",
      "type": "constructor"
    },
    {
      "anonymous": false,
      "inputs": [
        {
          "indexed": true,
          "internalType": "address",
          "name": "maker",
          "type": "address"
        }
      ],
      "name": "EscrowCancelled",
      "type": "event"
    },
    {
      "anonymous": false,
      "inputs": [
        {
          "indexed": true,
          "internalType": "address",
          "name": "maker",
          "type": "address"
        },
        {
          "indexed": false,
          "internalType": "uint256",
          "name": "amount",
          "type": "uint256"
        },
        {
          "indexed": false,
          "internalType": "bytes32",
          "name": "hashlock",
          "type": "bytes32"
        },
        {
          "indexed": false,
          "internalType": "uint256",
          "name": "timelock",
          "type": "uint256"
        }
      ],
      "name": "EscrowCreated",
      "type": "event"
    },
    {
      "anonymous": false,
      "inputs": [
        {
          "indexed": true,
          "internalType": "address",
          "name": "taker",
          "type": "address"
        },
        {
          "indexed": false,
          "internalType": "bytes32",
          "name": "secret",
          "type": "bytes32"
        }
      ],
      "name": "EscrowWithdrawn",
      "type": "event"
    },
    {
      "inputs": [],
      "name": "amount",
      "outputs": [
        {
          "internalType": "uint256",
          "name": "",
          "type": "uint256"
        }
      ],
      "stateMutability": "view",
      "type": "function"
    },
    {
      "inputs": [],
      "name": "cancel",
      "outputs": [],
      "stateMutability": "nonpayable",
      "type": "function"
    },
    {
      "inputs": [],
      "name": "cancelled",
      "outputs": [
        {
          "internalType": "bool",
          "name": "",
          "type": "bool"
        }
      ],
      "stateMutability": "view",
      "type": "function"
    },
    {
      "inputs": [],
      "name": "getBalance",
      "outputs": [
        {
          "internalType": "uint256",
          "name": "",
          "type": "uint256"
        }
      ],
      "stateMutability": "view",
      "type": "function"
    },
    {
      "inputs": [],
      "name": "getStatus",
      "outputs": [
        {
          "internalType": "address",
          "name": "_maker",
          "type": "address"
        },
        {
          "internalType": "address",
          "name": "_taker",
          "type": "address"
        },
        {
          "internalType": "uint256",
          "name": "_amount",
          "type": "uint256"
        },
        {
          "internalType": "bytes32",
          "name": "_hashlock",
          "type": "bytes32"
        },
        {
          "internalType": "uint256",
          "name": "_timelock",
          "type": "uint256"
        },
        {
          "internalType": "bool",
          "name": "_withdrawn",
          "type": "bool"
        },
        {
          "internalType": "bool",
          "name": "_cancelled",
          "type": "bool"
        },
        {
          "internalType": "uint256",
          "name": "_currentTime",
          "type": "uint256"
        }
      ],
      "stateMutability": "view",
      "type": "function"
    },
    {
      "inputs": [],
      "name": "hashlock",
      "outputs": [
        {
          "internalType": "bytes32",
          "name": "",
          "type": "bytes32"
        }
      ],
      "stateMutability": "view",
      "type": "function"
    },
    {
      "inputs": [],
      "name": "isActive",
      "outputs": [
        {
          "internalType": "bool",
          "name": "",
          "type": "bool"
        }
      ],
      "stateMutability": "view",
      "type": "function"
    },
    {
      "inputs": [
        {
          "internalType": "bytes32",
          "name": "_secret",
          "type": "bytes32"
        }
      ],
      "name": "isValidSecret",
      "outputs": [
        {
          "internalType": "bool",
          "name": "",
          "type": "bool"
        }
      ],
      "stateMutability": "view",
      "type": "function"
    },
    {
      "inputs": [],
      "name": "maker",
      "outputs": [
        {
          "internalType": "address",
          "name": "",
          "type": "address"
        }
      ],
      "stateMutability": "view",
      "type": "function"
    },
    {
      "inputs": [],
      "name": "taker",
      "outputs": [
        {
          "internalType": "address",
          "name": "",
          "type": "address"
        }
      ],
      "stateMutability": "view",
      "type": "function"
    },
    {
      "inputs": [],
      "name": "timelock",
      "outputs": [
        {
          "internalType": "uint256",
          "name": "",
          "type": "uint256"
        }
      ],
      "stateMutability": "view",
      "type": "function"
    },
    {
      "inputs": [
        {
          "internalType": "bytes32",
          "name": "_secret",
          "type": "bytes32"
        },
        {
          "internalType": "address",
          "name": "_taker",
          "type": "address"
        }
      ],
      "name": "withdraw",
      "outputs": [],
      "stateMutability": "nonpayable",
      "type": "function"
    },
    {
      "inputs": [],
      "name": "withdrawn",
      "outputs": [
        {
          "internalType": "bool",
          "name": "",
          "type": "bool"
        }
      ],
      "stateMutability": "view",
      "type": "function"
    }
  ],
  "bytecode": "0x6080604052604051620012bf380380620012bf8339818101604052810190620000299190620001a6565b336000806101000a81548173ffffffffffffffffffffffffffffffffffffffff021916908373ffffffffffffffffffffffffffffffffffffffff1602179055508160028190555080600381905550346001819055506000600460006101000a81548160ff0219169083151502179055506000600460016101000a81548160ff0219169083151502179055506000600460026101000a81548173ffffffffffffffffffffffffffffffffffffffff021916908373ffffffffffffffffffffffffffffffffffffffff16021790555060008054906101000a900473ffffffffffffffffffffffffffffffffffffffff1673ffffffffffffffffffffffffffffffffffffffff167f569cd0adb276dd59f4c1d686e27ca3e6468647d0c72733d70611a6ea59eac8ad60015460025460035460405162000168939291906200020f565b60405180910390a2505062000299565b600081519050620001898162000265565b92915050565b600081519050620001a0816200027f565b92915050565b60008060408385031215620001c057620001bf62000260565b5b6000620001d08582860162000178565b9250506020620001e3858286016200018f565b9150509250929050565b620001f8816200024c565b82525050565b620002098162000256565b82525050565b6000606082019050620002266000830186620001fe565b620002356020830185620001ed565b620002446040830184620001fe565b949350505050565b6000819050919050565b6000819050919050565b600080fd5b62000270816200024c565b81146200027c57600080fd5b50565b6200028a8162000256565b81146200029657600080fd5b50565b61101680620002a96000396000f3fe608060405234801561001057600080fd5b50d3801561001d57600080fd5b50d2801561002a57600080fd5b50600436106100e95760003560e01c8063782b3602116100a6578063aa8c217c11610080578063aa8c217c14610213578063c80ec52214610231578063d33219b41461024f578063ea8a1af01461026d576100e9565b8063782b3602146101b95780639a82a09a146101d7578063a782086e146101f5576100e9565b806312065fe0146100ee5780631b258d501461010c57806322f3e2d4146101285780632c2f1bf4146101465780634e69d5601461017657806350655d8c1461019b575b600080fd5b6100f6610277565b6040516101039190610d9c565b60405180910390f35b61012660048036038101906101219190610a02565b61027f565b005b61013061057c565b60405161013d9190610c86565b60405180910390f35b610160600480360381019061015b91906109a8565b6105ba565b60405161016d9190610c86565b60405180910390f35b61017e6105ee565b604051610192989796959493929190610c08565b60405180910390f35b6101a3610680565b6040516101b09190610bed565b60405180910390f35b6101c16106a4565b6040516101ce9190610bed565b60405180910390f35b6101df6106ca565b6040516101ec9190610c86565b60405180910390f35b6101fd6106dd565b60405161020a9190610ca1565b60405180910390f35b61021b6106e3565b6040516102289190610d9c565b60405180910390f35b6102396106e9565b6040516102469190610c86565b60405180910390f35b6102576106fc565b6040516102649190610d9c565b60405180910390f35b610275610702565b005b600047905090565b600460009054906101000a900460ff16156102cf576040517f08c379a00000000000000000000000000000000000000000000000000000000081526004016102c690610cdc565b60405180910390fd5b600460019054906101000a900460ff161561031f576040517f08c379a000000000000000000000000000000000000000000000000000000000815260040161031690610cfc565b60405180910390fd5b6002546002836040516020016103359190610bbb565b6040516020818303038152906040526040516103519190610bd6565b602060405180830381855afa15801561036e573d6000803e3d6000fd5b5050506040513d601f19601f8201168201806040525081019061039191906109d5565b146103d1576040517f08c379a00000000000000000000000000000000000000000000000000000000081526004016103c890610d5c565b60405180910390fd5b6003544210610415576040517f08c379a000000000000000000000000000000000000000000000000000000000815260040161040c90610d1c565b60405180910390fd5b600073ffffffffffffffffffffffffffffffffffffffff168173ffffffffffffffffffffffffffffffffffffffff161415610485576040517f08c379a000000000000000000000000000000000000000000000000000000000815260040161047c90610d3c565b60405180910390fd5b6001600460006101000a81548160ff02191690831515021790555080600460026101000a81548173ffffffffffffffffffffffffffffffffffffffff021916908373ffffffffffffffffffffffffffffffffffffffff1602179055508073ffffffffffffffffffffffffffffffffffffffff166108fc6001549081150290604051600060405180830381858888f19350505050158015610529573d6000803e3d6000fd5b508073ffffffffffffffffffffffffffffffffffffffff167fb4ee4401f39c385a5bf44000d68bc0dad46fcb590e438beb82315f015cc0ee80836040516105709190610ca1565b60405180910390a25050565b6000600460009054906101000a900460ff161580156105a85750600460019054906101000a900460ff16155b80156105b5575060035442105b905090565b6000600254826040516020016105d09190610bbb565b60405160208183030381529060405280519060200120149050919050565b60008060008060008060008060008054906101000a900473ffffffffffffffffffffffffffffffffffffffff16600460029054906101000a900473ffffffffffffffffffffffffffffffffffffffff1647600254600354600460009054906101000a900460ff16600460019054906101000a900460ff1642975097509750975097509750975097509091929394959697565b60008054906101000a900473ffffffffffffffffffffffffffffffffffffffff1681565b600460029054906101000a900473ffffffffffffffffffffffffffffffffffffffff1681565b600460019054906101000a900460ff1681565b60025481565b60015481565b600460009054906101000a900460ff1681565b60035481565b600460009054906101000a900460ff1615610752576040517f08c379a000000000000000000000000000000000000000000000000000000000815260040161074990610cdc565b60405180910390fd5b600460019054906101000a900460ff16156107a2576040517f08c379a000000000000000000000000000000000000000000000000000000000815260040161079990610cfc565b60405180910390fd5b60008054906101000a900473ffffffffffffffffffffffffffffffffffffffff1673ffffffffffffffffffffffffffffffffffffffff163373ffffffffffffffffffffffffffffffffffffffff1614610830576040517f08c379a000000000000000000000000000000000000000000000000000000000815260040161082790610d7c565b60405180910390fd5b600354421015610875576040517f08c379a000000000000000000000000000000000000000000000000000000000815260040161086c90610cbc565b60405180910390fd5b6001600460016101000a81548160ff02191690831515021790555060008054906101000a900473ffffffffffffffffffffffffffffffffffffffff1673ffffffffffffffffffffffffffffffffffffffff166108fc6001549081150290604051600060405180830381858888f193505050501580156108f8573d6000803e3d6000fd5b5060008054906101000a900473ffffffffffffffffffffffffffffffffffffffff1673ffffffffffffffffffffffffffffffffffffffff167fac2a38716bf0fa9fa1a52e859663398120e11fa721ea31fe0682199b9fd367e760405160405180910390a2565b60008135905061096d81610fb2565b61097681610dde565b905092915050565b60008135905061098d81610fc9565b92915050565b6000815190506109a281610fc9565b92915050565b6000602082840312156109be576109bd610e8e565b5b60006109cc8482850161097e565b91505092915050565b6000602082840312156109eb576109ea610e8e565b5b60006109f984828501610993565b91505092915050565b60008060408385031215610a1957610a18610e8e565b5b6000610a278582860161097e565b9250506020610a388582860161095e565b9150509250929050565b610a4b81610dde565b82525050565b610a5a81610df0565b82525050565b610a6981610dfc565b82525050565b610a80610a7b82610dfc565b610e84565b82525050565b6000610a9182610db7565b610a9b8185610dc2565b9350610aab818560208601610e51565b80840191505092915050565b6000610ac4601383610dcd565b9150610acf82610e93565b602082019050919050565b6000610ae7601183610dcd565b9150610af282610ebc565b602082019050919050565b6000610b0a601183610dcd565b9150610b1582610ee5565b602082019050919050565b6000610b2d601483610dcd565b9150610b3882610f0e565b602082019050919050565b6000610b50600d83610dcd565b9150610b5b82610f37565b602082019050919050565b6000610b73600c83610dcd565b9150610b7e82610f60565b602082019050919050565b6000610b96601583610dcd565b9150610ba182610f89565b602082019050919050565b610bb581610e47565b82525050565b6000610bc78284610a6f565b60208201915081905092915050565b6000610be28284610a86565b915081905092915050565b6000602082019050610c026000830184610a42565b92915050565b600061010082019050610c1e600083018b610a42565b610c2b602083018a610a42565b610c386040830189610bac565b610c456060830188610a60565b610c526080830187610bac565b610c5f60a0830186610a51565b610c6c60c0830185610a51565b610c7960e0830184610bac565b9998505050505050505050565b6000602082019050610c9b6000830184610a51565b92915050565b6000602082019050610cb66000830184610a60565b92915050565b60006020820190508181036000830152610cd581610ab7565b9050919050565b60006020820190508181036000830152610cf581610ada565b9050919050565b60006020820190508181036000830152610d1581610afd565b9050919050565b60006020820190508181036000830152610d3581610b20565b9050919050565b60006020820190508181036000830152610d5581610b43565b9050919050565b60006020820190508181036000830152610d7581610b66565b9050919050565b60006020820190508181036000830152610d9581610b89565b9050919050565b6000602082019050610db16000830184610bac565b92915050565b600081519050919050565b600081905092915050565b600082825260208201905092915050565b6000610de982610e06565b9050919050565b60008115159050919050565b6000819050919050565b600073ffffffffffffffffffffffffffffffffffffffff82169050919050565b600074ffffffffffffffffffffffffffffffffffffffffff82169050919050565b6000819050919050565b60005b83811015610e6f578082015181840152602081019050610e54565b83811115610e7e576000848401525b50505050565b6000819050919050565b600080fd5b7f546f6f206561726c7920746f2063616e63656c00000000000000000000000000600082015250565b7f416c72656164792077697468647261776e000000000000000000000000000000600082015250565b7f416c72656164792063616e63656c6c6564000000000000000000000000000000600082015250565b7f546f6f206c61746520746f207769746864726177000000000000000000000000600082015250565b7f496e76616c69642074616b657200000000000000000000000000000000000000600082015250565b7f57726f6e67207365637265740000000000000000000000000000000000000000600082015250565b7f4f6e6c79206d616b65722063616e2063616e63656c0000000000000000000000600082015250565b610fbb81610e26565b8114610fc657600080fd5b50565b610fd281610dfc565b8114610fdd57600080fd5b5056fea26474726f6e5822122012359592437063d6f99a552cf4a27d30bfdf1c69d69962fd7029e45eeb47690164736f6c63430008060033",
  "source": "// SPDX-License-Identifier: MIT\npragma solidity ^0.8.6;\n\ncontract HTLCEscrow {\n    address public maker;\n    uint256 public amount;\n    bytes32 public hashlock;\n    uint256 public timelock;\n    bool public withdrawn;\n    bool public cancelled;\n    address public taker;\n\n    event EscrowCreated(address indexed maker, uint256 amount, bytes32 hashlock, uint256 timelock);\n    event EscrowWithdrawn(address indexed taker, bytes32 secret);\n    event EscrowCancelled(address indexed maker);\n\n    constructor(\n        bytes32 _hashlock,\n        uint256 _timelock\n    ) payable {\n        maker = msg.sender;\n        hashlock = _hashlock;\n        timelock = _timelock;\n        amount = msg.value;\n        withdrawn = false;\n        cancelled = false;\n        taker = address(0);\n        emit EscrowCreated(maker, amount, hashlock, timelock);\n    }\n\n    function withdraw(bytes32 _secret, address _taker) external {\n        require(!withdrawn, \"Already withdrawn\");\n        require(!cancelled, \"Already cancelled\");\n        require(sha256(abi.encodePacked(_secret)) == hashlock, \"Wrong secret\");\n        require(block.timestamp < timelock, \"Too late to withdraw\");\n        require(_taker != address(0), \"Invalid taker\");\n\n        withdrawn = true;\n        taker = _taker;\n        payable(_taker).transfer(amount);\n        emit EscrowWithdrawn(_taker, _secret);\n    }\n\n    function cancel() external {\n        require(!withdrawn, \"Already withdrawn\");\n        require(!cancelled, \"Already cancelled\");\n        require(msg.sender == maker, \"Only maker can cancel\");\n        require(block.timestamp >= timelock, \"Too early to cancel\");\n\n        cancelled = true;\n        payable(maker).transfer(amount);\n        emit EscrowCancelled(maker);\n    }\n\n    function getBalance() external view returns (uint256) {\n        return address(this).balance;\n    }\n\n    function getStatus()\n        external\n        view\n        returns (\n            address _maker,\n            address _taker,\n            uint256 _amount,\n            bytes32 _hashlock,\n            uint256 _timelock,\n            bool _withdrawn,\n            bool _cancelled,\n            uint256 _currentTime\n        )\n    {\n        return (maker, taker, address(this).balance, hashlock, timelock, withdrawn, cancelled, block.timestamp);\n    }\n\n    function isValidSecret(bytes32 _secret) external view returns (bool) {\n        return keccak256(abi.encodePacked(_secret)) == hashlock;\n    }\n\n    function isActive() external view returns (bool) {\n        return !withdrawn && !cancelled && block.timestamp < timelock;\n    }\n}\n",
  "sourcePath": "/home/ubu24/1inch/on-chain/tron/contracts/HTLCEscrow.sol",
  "compiler": {
    "name": "solc",
    "version": "0.8.6+commit.0e36fba0.mod.Emscripten.clang"
  },
  "schemaVersion": "2.0.1",
  "updatedAt": "2025-07-31T11:18:05.024Z"
}