{
  "contractName": "HTLCEscrow",
  "abi": [
    {
      "inputs": [
        {
          "internalType": "bytes32",
          "name": "_hashlock",
          "type": "bytes32"
        },
        {
          "internalType": "uint256",
          "name": "_timelock",
          "type": "uint256"
        }
      ],
      "stateMutability": "payable",
      "type": "constructor"
    },
    {
      "anonymous": false,
      "inputs": [
        {
          "indexed": true,
          "internalType": "address",
          "name": "maker",
          "type": "address"
        }
      ],
      "name": "EscrowCancelled",
      "type": "event"
    },
    {
      "anonymous": false,
      "inputs": [
        {
          "indexed": true,
          "internalType": "address",
          "name": "maker",
          "type": "address"
        },
        {
          "indexed": false,
          "internalType": "uint256",
          "name": "amount",
          "type": "uint256"
        },
        {
          "indexed": false,
          "internalType": "bytes32",
          "name": "hashlock",
          "type": "bytes32"
        },
        {
          "indexed": false,
          "internalType": "uint256",
          "name": "timelock",
          "type": "uint256"
        }
      ],
      "name": "EscrowCreated",
      "type": "event"
    },
    {
      "anonymous": false,
      "inputs": [
        {
          "indexed": true,
          "internalType": "address",
          "name": "taker",
          "type": "address"
        },
        {
          "indexed": false,
          "internalType": "bytes32",
          "name": "secret",
          "type": "bytes32"
        }
      ],
      "name": "EscrowWithdrawn",
      "type": "event"
    },
    {
      "inputs": [],
      "name": "amount",
      "outputs": [
        {
          "internalType": "uint256",
          "name": "",
          "type": "uint256"
        }
      ],
      "stateMutability": "view",
      "type": "function"
    },
    {
      "inputs": [],
      "name": "cancel",
      "outputs": [],
      "stateMutability": "nonpayable",
      "type": "function"
    },
    {
      "inputs": [],
      "name": "cancelled",
      "outputs": [
        {
          "internalType": "bool",
          "name": "",
          "type": "bool"
        }
      ],
      "stateMutability": "view",
      "type": "function"
    },
    {
      "inputs": [],
      "name": "getBalance",
      "outputs": [
        {
          "internalType": "uint256",
          "name": "",
          "type": "uint256"
        }
      ],
      "stateMutability": "view",
      "type": "function"
    },
    {
      "inputs": [],
      "name": "getStatus",
      "outputs": [
        {
          "internalType": "address",
          "name": "_maker",
          "type": "address"
        },
        {
          "internalType": "uint256",
          "name": "_amount",
          "type": "uint256"
        },
        {
          "internalType": "bytes32",
          "name": "_hashlock",
          "type": "bytes32"
        },
        {
          "internalType": "uint256",
          "name": "_timelock",
          "type": "uint256"
        },
        {
          "internalType": "bool",
          "name": "_withdrawn",
          "type": "bool"
        },
        {
          "internalType": "bool",
          "name": "_cancelled",
          "type": "bool"
        },
        {
          "internalType": "uint256",
          "name": "_currentTime",
          "type": "uint256"
        }
      ],
      "stateMutability": "view",
      "type": "function"
    },
    {
      "inputs": [],
      "name": "hashlock",
      "outputs": [
        {
          "internalType": "bytes32",
          "name": "",
          "type": "bytes32"
        }
      ],
      "stateMutability": "view",
      "type": "function"
    },
    {
      "inputs": [],
      "name": "isActive",
      "outputs": [
        {
          "internalType": "bool",
          "name": "",
          "type": "bool"
        }
      ],
      "stateMutability": "view",
      "type": "function"
    },
    {
      "inputs": [
        {
          "internalType": "bytes32",
          "name": "_secret",
          "type": "bytes32"
        }
      ],
      "name": "isValidSecret",
      "outputs": [
        {
          "internalType": "bool",
          "name": "",
          "type": "bool"
        }
      ],
      "stateMutability": "view",
      "type": "function"
    },
    {
      "inputs": [],
      "name": "maker",
      "outputs": [
        {
          "internalType": "address",
          "name": "",
          "type": "address"
        }
      ],
      "stateMutability": "view",
      "type": "function"
    },
    {
      "inputs": [],
      "name": "timelock",
      "outputs": [
        {
          "internalType": "uint256",
          "name": "",
          "type": "uint256"
        }
      ],
      "stateMutability": "view",
      "type": "function"
    },
    {
      "inputs": [
        {
          "internalType": "bytes32",
          "name": "_secret",
          "type": "bytes32"
        },
        {
          "internalType": "address",
          "name": "_taker",
          "type": "address"
        }
      ],
      "name": "withdraw",
      "outputs": [],
      "stateMutability": "nonpayable",
      "type": "function"
    },
    {
      "inputs": [],
      "name": "withdrawn",
      "outputs": [
        {
          "internalType": "bool",
          "name": "",
          "type": "bool"
        }
      ],
      "stateMutability": "view",
      "type": "function"
    }
  ],
  "bytecode": "0x6080604052604051620011f1380380620011f1833981810160405281019062000029919062000164565b336000806101000a81548173ffffffffffffffffffffffffffffffffffffffff021916908373ffffffffffffffffffffffffffffffffffffffff1602179055508160028190555080600381905550346001819055506000600460006101000a81548160ff0219169083151502179055506000600460016101000a81548160ff02191690831515021790555060008054906101000a900473ffffffffffffffffffffffffffffffffffffffff1673ffffffffffffffffffffffffffffffffffffffff167f569cd0adb276dd59f4c1d686e27ca3e6468647d0c72733d70611a6ea59eac8ad6001546002546003546040516200012693929190620001cd565b60405180910390a2505062000257565b600081519050620001478162000223565b92915050565b6000815190506200015e816200023d565b92915050565b600080604083850312156200017e576200017d6200021e565b5b60006200018e8582860162000136565b9250506020620001a1858286016200014d565b9150509250929050565b620001b6816200020a565b82525050565b620001c78162000214565b82525050565b6000606082019050620001e46000830186620001bc565b620001f36020830185620001ab565b620002026040830184620001bc565b949350505050565b6000819050919050565b6000819050919050565b600080fd5b6200022e816200020a565b81146200023a57600080fd5b50565b620002488162000214565b81146200025457600080fd5b50565b610f8a80620002676000396000f3fe608060405234801561001057600080fd5b50d3801561001d57600080fd5b50d2801561002a57600080fd5b50600436106100ce5760003560e01c80639a82a09a1161008b5780639a82a09a1461019d578063a782086e146101bb578063aa8c217c146101d9578063c80ec522146101f7578063d33219b414610215578063ea8a1af014610233576100ce565b806312065fe0146100d35780631b258d50146100f157806322f3e2d41461010d5780632c2f1bf41461012b5780634e69d5601461015b57806350655d8c1461017f575b600080fd5b6100db61023d565b6040516100e89190610d10565b60405180910390f35b61010b60048036038101906101069190610985565b610245565b005b610115610501565b6040516101229190610bfa565b60405180910390f35b6101456004803603810190610140919061092b565b61053f565b6040516101529190610bfa565b60405180910390f35b6101636105bb565b6040516101769796959493929190610b8b565b60405180910390f35b610187610629565b6040516101949190610b70565b60405180910390f35b6101a561064d565b6040516101b29190610bfa565b60405180910390f35b6101c3610660565b6040516101d09190610c15565b60405180910390f35b6101e1610666565b6040516101ee9190610d10565b60405180910390f35b6101ff61066c565b60405161020c9190610bfa565b60405180910390f35b61021d61067f565b60405161022a9190610d10565b60405180910390f35b61023b610685565b005b600047905090565b600460009054906101000a900460ff1615610295576040517f08c379a000000000000000000000000000000000000000000000000000000000815260040161028c90610c50565b60405180910390fd5b600460019054906101000a900460ff16156102e5576040517f08c379a00000000000000000000000000000000000000000000000000000000081526004016102dc90610c70565b60405180910390fd5b6002546002836040516020016102fb9190610b3e565b6040516020818303038152906040526040516103179190610b59565b602060405180830381855afa158015610334573d6000803e3d6000fd5b5050506040513d601f19601f820116820180604052508101906103579190610958565b14610397576040517f08c379a000000000000000000000000000000000000000000000000000000000815260040161038e90610cd0565b60405180910390fd5b60035442106103db576040517f08c379a00000000000000000000000000000000000000000000000000000000081526004016103d290610c90565b60405180910390fd5b600073ffffffffffffffffffffffffffffffffffffffff168173ffffffffffffffffffffffffffffffffffffffff16141561044b576040517f08c379a000000000000000000000000000000000000000000000000000000000815260040161044290610cb0565b60405180910390fd5b6001600460006101000a81548160ff0219169083151502179055508073ffffffffffffffffffffffffffffffffffffffff166108fc6001549081150290604051600060405180830381858888f193505050501580156104ae573d6000803e3d6000fd5b508073ffffffffffffffffffffffffffffffffffffffff167fb4ee4401f39c385a5bf44000d68bc0dad46fcb590e438beb82315f015cc0ee80836040516104f59190610c15565b60405180910390a25050565b6000600460009054906101000a900460ff1615801561052d5750600460019054906101000a900460ff16155b801561053a575060035442105b905090565b60006002546002836040516020016105579190610b3e565b6040516020818303038152906040526040516105739190610b59565b602060405180830381855afa158015610590573d6000803e3d6000fd5b5050506040513d601f19601f820116820180604052508101906105b39190610958565b149050919050565b60008060008060008060008060009054906101000a900473ffffffffffffffffffffffffffffffffffffffff16600154600254600354600460009054906101000a900460ff16600460019054906101000a900460ff1642965096509650965096509650965090919293949596565b60008054906101000a900473ffffffffffffffffffffffffffffffffffffffff1681565b600460019054906101000a900460ff1681565b60025481565b60015481565b600460009054906101000a900460ff1681565b60035481565b600460009054906101000a900460ff16156106d5576040517f08c379a00000000000000000000000000000000000000000000000000000000081526004016106cc90610c50565b60405180910390fd5b600460019054906101000a900460ff1615610725576040517f08c379a000000000000000000000000000000000000000000000000000000000815260040161071c90610c70565b60405180910390fd5b60008054906101000a900473ffffffffffffffffffffffffffffffffffffffff1673ffffffffffffffffffffffffffffffffffffffff163373ffffffffffffffffffffffffffffffffffffffff16146107b3576040517f08c379a00000000000000000000000000000000000000000000000000000000081526004016107aa90610cf0565b60405180910390fd5b6003544210156107f8576040517f08c379a00000000000000000000000000000000000000000000000000000000081526004016107ef90610c30565b60405180910390fd5b6001600460016101000a81548160ff02191690831515021790555060008054906101000a900473ffffffffffffffffffffffffffffffffffffffff1673ffffffffffffffffffffffffffffffffffffffff166108fc6001549081150290604051600060405180830381858888f1935050505015801561087b573d6000803e3d6000fd5b5060008054906101000a900473ffffffffffffffffffffffffffffffffffffffff1673ffffffffffffffffffffffffffffffffffffffff167fac2a38716bf0fa9fa1a52e859663398120e11fa721ea31fe0682199b9fd367e760405160405180910390a2565b6000813590506108f081610f26565b6108f981610d52565b905092915050565b60008135905061091081610f3d565b92915050565b60008151905061092581610f3d565b92915050565b60006020828403121561094157610940610e02565b5b600061094f84828501610901565b91505092915050565b60006020828403121561096e5761096d610e02565b5b600061097c84828501610916565b91505092915050565b6000806040838503121561099c5761099b610e02565b5b60006109aa85828601610901565b92505060206109bb858286016108e1565b9150509250929050565b6109ce81610d52565b82525050565b6109dd81610d64565b82525050565b6109ec81610d70565b82525050565b610a036109fe82610d70565b610df8565b82525050565b6000610a1482610d2b565b610a1e8185610d36565b9350610a2e818560208601610dc5565b80840191505092915050565b6000610a47601383610d41565b9150610a5282610e07565b602082019050919050565b6000610a6a601183610d41565b9150610a7582610e30565b602082019050919050565b6000610a8d601183610d41565b9150610a9882610e59565b602082019050919050565b6000610ab0601483610d41565b9150610abb82610e82565b602082019050919050565b6000610ad3600d83610d41565b9150610ade82610eab565b602082019050919050565b6000610af6600c83610d41565b9150610b0182610ed4565b602082019050919050565b6000610b19601583610d41565b9150610b2482610efd565b602082019050919050565b610b3881610dbb565b82525050565b6000610b4a82846109f2565b60208201915081905092915050565b6000610b658284610a09565b915081905092915050565b6000602082019050610b8560008301846109c5565b92915050565b600060e082019050610ba0600083018a6109c5565b610bad6020830189610b2f565b610bba60408301886109e3565b610bc76060830187610b2f565b610bd460808301866109d4565b610be160a08301856109d4565b610bee60c0830184610b2f565b98975050505050505050565b6000602082019050610c0f60008301846109d4565b92915050565b6000602082019050610c2a60008301846109e3565b92915050565b60006020820190508181036000830152610c4981610a3a565b9050919050565b60006020820190508181036000830152610c6981610a5d565b9050919050565b60006020820190508181036000830152610c8981610a80565b9050919050565b60006020820190508181036000830152610ca981610aa3565b9050919050565b60006020820190508181036000830152610cc981610ac6565b9050919050565b60006020820190508181036000830152610ce981610ae9565b9050919050565b60006020820190508181036000830152610d0981610b0c565b9050919050565b6000602082019050610d256000830184610b2f565b92915050565b600081519050919050565b600081905092915050565b600082825260208201905092915050565b6000610d5d82610d7a565b9050919050565b60008115159050919050565b6000819050919050565b600073ffffffffffffffffffffffffffffffffffffffff82169050919050565b600074ffffffffffffffffffffffffffffffffffffffffff82169050919050565b6000819050919050565b60005b83811015610de3578082015181840152602081019050610dc8565b83811115610df2576000848401525b50505050565b6000819050919050565b600080fd5b7f546f6f206561726c7920746f2063616e63656c00000000000000000000000000600082015250565b7f416c72656164792077697468647261776e000000000000000000000000000000600082015250565b7f416c72656164792063616e63656c6c6564000000000000000000000000000000600082015250565b7f546f6f206c61746520746f207769746864726177000000000000000000000000600082015250565b7f496e76616c69642074616b657200000000000000000000000000000000000000600082015250565b7f57726f6e67207365637265740000000000000000000000000000000000000000600082015250565b7f4f6e6c79206d616b65722063616e2063616e63656c0000000000000000000000600082015250565b610f2f81610d9a565b8114610f3a57600080fd5b50565b610f4681610d70565b8114610f5157600080fd5b5056fea26474726f6e582212201279d06f51ae13e3a093456529dd02033f504b80e632ecc7689d821e6a5a952764736f6c63430008060033",
  "source": "// SPDX-License-Identifier: MIT\npragma solidity ^0.8.6;\n\ncontract HTLCEscrow {\n    address public maker;\n    uint256 public amount;\n    bytes32 public hashlock;\n    uint256 public timelock;\n    bool public withdrawn;\n    bool public cancelled;\n\n    event EscrowCreated(address indexed maker, uint256 amount, bytes32 hashlock, uint256 timelock);\n    event EscrowWithdrawn(address indexed taker, bytes32 secret);\n    event EscrowCancelled(address indexed maker);\n\n    constructor(\n        bytes32 _hashlock,\n        uint256 _timelock   \n    ) payable {\n        maker = msg.sender;\n        hashlock = _hashlock;\n        timelock = _timelock;\n        amount = msg.value;\n        withdrawn = false;\n        cancelled = false;\n        emit EscrowCreated(maker, amount, hashlock, timelock);\n    }\n\n    function withdraw(bytes32 _secret, address _taker) external {\n        require(!withdrawn, \"Already withdrawn\");\n        require(!cancelled, \"Already cancelled\");\n        require(sha256(abi.encodePacked(_secret)) == hashlock, \"Wrong secret\");\n        require(block.timestamp < timelock, \"Too late to withdraw\");\n        require(_taker != address(0), \"Invalid taker\");\n\n        withdrawn = true;\n        payable(_taker).transfer(amount);\n        emit EscrowWithdrawn(_taker, _secret);\n    }\n\n    function cancel() external {\n        require(!withdrawn, \"Already withdrawn\");\n        require(!cancelled, \"Already cancelled\");\n        require(msg.sender == maker, \"Only maker can cancel\");\n        require(block.timestamp >= timelock, \"Too early to cancel\");\n\n        cancelled = true;\n        payable(maker).transfer(amount);\n        emit EscrowCancelled(maker);\n    }\n\n    function getBalance() external view returns (uint256) {\n        return address(this).balance;\n    }\n\n    function getStatus()\n        external\n        view\n        returns (\n            address _maker,\n            uint256 _amount,\n            bytes32 _hashlock,\n            uint256 _timelock,\n            bool _withdrawn,\n            bool _cancelled,\n            uint256 _currentTime\n        )\n    {\n        return (maker, amount, hashlock, timelock, withdrawn, cancelled, block.timestamp);\n    }\n\n    function isValidSecret(bytes32 _secret) external view returns (bool) {\n        return sha256(abi.encodePacked(_secret)) == hashlock;\n    }\n\n    function isActive() external view returns (bool) {\n        return !withdrawn && !cancelled && block.timestamp < timelock;\n    }\n}\n",
  "sourcePath": "/home/ubu24/1inch/on-chain/tron/contracts/HTLCEscrow.sol",
  "compiler": {
    "name": "solc",
    "version": "0.8.6+commit.0e36fba0.mod.Emscripten.clang"
  },
  "schemaVersion": "2.0.1",
  "updatedAt": "2025-07-31T14:18:30.851Z"
}