{
  "contractName": "HTLCEscrow",
  "abi": [
    {
      "inputs": [
        {
          "internalType": "address",
          "name": "_taker",
          "type": "address"
        },
        {
          "internalType": "bytes32",
          "name": "_hashlock",
          "type": "bytes32"
        },
        {
          "internalType": "uint256",
          "name": "_timelock",
          "type": "uint256"
        }
      ],
      "stateMutability": "payable",
      "type": "constructor"
    },
    {
      "anonymous": false,
      "inputs": [
        {
          "indexed": true,
          "internalType": "address",
          "name": "maker",
          "type": "address"
        }
      ],
      "name": "EscrowCancelled",
      "type": "event"
    },
    {
      "anonymous": false,
      "inputs": [
        {
          "indexed": true,
          "internalType": "address",
          "name": "maker",
          "type": "address"
        },
        {
          "indexed": true,
          "internalType": "address",
          "name": "taker",
          "type": "address"
        },
        {
          "indexed": false,
          "internalType": "uint256",
          "name": "amount",
          "type": "uint256"
        },
        {
          "indexed": false,
          "internalType": "bytes32",
          "name": "hashlock",
          "type": "bytes32"
        },
        {
          "indexed": false,
          "internalType": "uint256",
          "name": "timelock",
          "type": "uint256"
        }
      ],
      "name": "EscrowCreated",
      "type": "event"
    },
    {
      "anonymous": false,
      "inputs": [
        {
          "indexed": true,
          "internalType": "address",
          "name": "taker",
          "type": "address"
        },
        {
          "indexed": false,
          "internalType": "bytes32",
          "name": "secret",
          "type": "bytes32"
        }
      ],
      "name": "EscrowWithdrawn",
      "type": "event"
    },
    {
      "inputs": [],
      "name": "amount",
      "outputs": [
        {
          "internalType": "uint256",
          "name": "",
          "type": "uint256"
        }
      ],
      "stateMutability": "view",
      "type": "function"
    },
    {
      "inputs": [],
      "name": "cancel",
      "outputs": [],
      "stateMutability": "nonpayable",
      "type": "function"
    },
    {
      "inputs": [],
      "name": "cancelled",
      "outputs": [
        {
          "internalType": "bool",
          "name": "",
          "type": "bool"
        }
      ],
      "stateMutability": "view",
      "type": "function"
    },
    {
      "inputs": [],
      "name": "getStatus",
      "outputs": [
        {
          "internalType": "address",
          "name": "_maker",
          "type": "address"
        },
        {
          "internalType": "address",
          "name": "_taker",
          "type": "address"
        },
        {
          "internalType": "uint256",
          "name": "_amount",
          "type": "uint256"
        },
        {
          "internalType": "bytes32",
          "name": "_hashlock",
          "type": "bytes32"
        },
        {
          "internalType": "uint256",
          "name": "_timelock",
          "type": "uint256"
        },
        {
          "internalType": "bool",
          "name": "_withdrawn",
          "type": "bool"
        },
        {
          "internalType": "bool",
          "name": "_cancelled",
          "type": "bool"
        },
        {
          "internalType": "uint256",
          "name": "_currentTime",
          "type": "uint256"
        }
      ],
      "stateMutability": "view",
      "type": "function"
    },
    {
      "inputs": [],
      "name": "hashlock",
      "outputs": [
        {
          "internalType": "bytes32",
          "name": "",
          "type": "bytes32"
        }
      ],
      "stateMutability": "view",
      "type": "function"
    },
    {
      "inputs": [],
      "name": "maker",
      "outputs": [
        {
          "internalType": "address",
          "name": "",
          "type": "address"
        }
      ],
      "stateMutability": "view",
      "type": "function"
    },
    {
      "inputs": [],
      "name": "taker",
      "outputs": [
        {
          "internalType": "address",
          "name": "",
          "type": "address"
        }
      ],
      "stateMutability": "view",
      "type": "function"
    },
    {
      "inputs": [],
      "name": "timelock",
      "outputs": [
        {
          "internalType": "uint256",
          "name": "",
          "type": "uint256"
        }
      ],
      "stateMutability": "view",
      "type": "function"
    },
    {
      "inputs": [
        {
          "internalType": "bytes32",
          "name": "_secret",
          "type": "bytes32"
        }
      ],
      "name": "withdraw",
      "outputs": [],
      "stateMutability": "nonpayable",
      "type": "function"
    },
    {
      "inputs": [],
      "name": "withdrawn",
      "outputs": [
        {
          "internalType": "bool",
          "name": "",
          "type": "bool"
        }
      ],
      "stateMutability": "view",
      "type": "function"
    }
  ],
  "bytecode": "0x6080604052604051620013a4380380620013a4833981810160405281019062000029919062000322565b600034116200006f576040517f08c379a0000000000000000000000000000000000000000000000000000000008152600401620000669062000480565b60405180910390fd5b600073ffffffffffffffffffffffffffffffffffffffff168373ffffffffffffffffffffffffffffffffffffffff161415620000e2576040517f08c379a0000000000000000000000000000000000000000000000000000000008152600401620000d990620004a2565b60405180910390fd5b6000801b8214156200012b576040517f08c379a000000000000000000000000000000000000000000000000000000000815260040162000122906200045e565b60405180910390fd5b6000811162000171576040517f08c379a000000000000000000000000000000000000000000000000000000000815260040162000168906200043c565b60405180910390fd5b336000806101000a81548173ffffffffffffffffffffffffffffffffffffffff021916908373ffffffffffffffffffffffffffffffffffffffff16021790555082600160006101000a81548173ffffffffffffffffffffffffffffffffffffffff021916908373ffffffffffffffffffffffffffffffffffffffff160217905550816002819055503460038190555080426200020e919062000512565b600481905550600160009054906101000a900473ffffffffffffffffffffffffffffffffffffffff1673ffffffffffffffffffffffffffffffffffffffff1660008054906101000a900473ffffffffffffffffffffffffffffffffffffffff1673ffffffffffffffffffffffffffffffffffffffff167fb10feb8f8a3aef137d292b0da0b9361c402e7ac80da5d832ca93cfd000847b4e600354600254600454604051620002bf93929190620004c4565b60405180910390a3505050620006fe565b600081519050620002e181620006b0565b620002ec816200056f565b905092915050565b6000815190506200030581620006ca565b92915050565b6000815190506200031c81620006e4565b92915050565b6000806000606084860312156200033e576200033d62000607565b5b60006200034e86828701620002d0565b93505060206200036186828701620002f4565b925050604062000374868287016200030b565b9150509250925092565b620003898162000583565b82525050565b60006200039e60108362000501565b9150620003ab826200060c565b602082019050919050565b6000620003c560108362000501565b9150620003d28262000635565b602082019050919050565b6000620003ec600d8362000501565b9150620003f9826200065e565b602082019050919050565b600062000413600d8362000501565b9150620004208262000687565b602082019050919050565b6200043681620005ce565b82525050565b6000602082019050818103600083015262000457816200038f565b9050919050565b600060208201905081810360008301526200047981620003b6565b9050919050565b600060208201905081810360008301526200049b81620003dd565b9050919050565b60006020820190508181036000830152620004bd8162000404565b9050919050565b6000606082019050620004db60008301866200042b565b620004ea60208301856200037e565b620004f960408301846200042b565b949350505050565b600082825260208201905092915050565b60006200051f82620005ce565b91506200052c83620005ce565b9250827fffffffffffffffffffffffffffffffffffffffffffffffffffffffffffffffff03821115620005645762000563620005d8565b5b828201905092915050565b60006200057c826200058d565b9050919050565b6000819050919050565b600073ffffffffffffffffffffffffffffffffffffffff82169050919050565b600074ffffffffffffffffffffffffffffffffffffffffff82169050919050565b6000819050919050565b7f4e487b7100000000000000000000000000000000000000000000000000000000600052601160045260246000fd5b600080fd5b7f496e76616c69642074696d656c6f636b00000000000000000000000000000000600082015250565b7f496e76616c696420686173686c6f636b00000000000000000000000000000000600082015250565b7f4d7573742073656e642054525800000000000000000000000000000000000000600082015250565b7f496e76616c69642074616b657200000000000000000000000000000000000000600082015250565b620006bb81620005ad565b8114620006c757600080fd5b50565b620006d58162000583565b8114620006e157600080fd5b50565b620006ef81620005ce565b8114620006fb57600080fd5b50565b610c96806200070e6000396000f3fe608060405234801561001057600080fd5b50d3801561001d57600080fd5b50d2801561002a57600080fd5b50600436106100b85760003560e01c8063a782086e11610080578063a782086e14610158578063aa8c217c14610176578063c80ec52214610194578063d33219b4146101b2578063ea8a1af0146101d0576100b8565b80634e69d560146100bd57806350655d8c146100e2578063782b3602146101005780638e19899e1461011e5780639a82a09a1461013a575b600080fd5b6100c56101da565b6040516100d9989796959493929190610952565b60405180910390f35b6100ea61026e565b6040516100f79190610937565b60405180910390f35b610108610292565b6040516101159190610937565b60405180910390f35b610138600480360381019061013391906107ca565b6102b8565b005b610142610558565b60405161014f91906109d0565b60405180910390f35b61016061056b565b60405161016d91906109eb565b60405180910390f35b61017e610571565b60405161018b9190610ac6565b60405180910390f35b61019c610577565b6040516101a991906109d0565b60405180910390f35b6101ba61058a565b6040516101c79190610ac6565b60405180910390f35b6101d8610590565b005b60008060008060008060008060008054906101000a900473ffffffffffffffffffffffffffffffffffffffff16600160009054906101000a900473ffffffffffffffffffffffffffffffffffffffff16600354600254600454600560009054906101000a900460ff16600560019054906101000a900460ff1642975097509750975097509750975097509091929394959697565b60008054906101000a900473ffffffffffffffffffffffffffffffffffffffff1681565b600160009054906101000a900473ffffffffffffffffffffffffffffffffffffffff1681565b600560009054906101000a900460ff161580156102e25750600560019054906101000a900460ff16155b610321576040517f08c379a000000000000000000000000000000000000000000000000000000000815260040161031890610a86565b60405180910390fd5b600160009054906101000a900473ffffffffffffffffffffffffffffffffffffffff1673ffffffffffffffffffffffffffffffffffffffff163373ffffffffffffffffffffffffffffffffffffffff16146103b1576040517f08c379a00000000000000000000000000000000000000000000000000000000081526004016103a890610a66565b60405180910390fd5b600254816040516020016103c5919061091c565b604051602081830303815290604052805190602001201461041b576040517f08c379a000000000000000000000000000000000000000000000000000000000815260040161041290610a46565b60405180910390fd5b600454421061045f576040517f08c379a000000000000000000000000000000000000000000000000000000000815260040161045690610a26565b60405180910390fd5b6001600560006101000a81548160ff021916908315150217905550600160009054906101000a900473ffffffffffffffffffffffffffffffffffffffff1673ffffffffffffffffffffffffffffffffffffffff166108fc6003549081150290604051600060405180830381858888f193505050501580156104e4573d6000803e3d6000fd5b50600160009054906101000a900473ffffffffffffffffffffffffffffffffffffffff1673ffffffffffffffffffffffffffffffffffffffff167fb4ee4401f39c385a5bf44000d68bc0dad46fcb590e438beb82315f015cc0ee808260405161054d91906109eb565b60405180910390a250565b600560019054906101000a900460ff1681565b60025481565b60035481565b600560009054906101000a900460ff1681565b60045481565b600560009054906101000a900460ff161580156105ba5750600560019054906101000a900460ff16155b6105f9576040517f08c379a00000000000000000000000000000000000000000000000000000000081526004016105f090610a86565b60405180910390fd5b60008054906101000a900473ffffffffffffffffffffffffffffffffffffffff1673ffffffffffffffffffffffffffffffffffffffff163373ffffffffffffffffffffffffffffffffffffffff1614610687576040517f08c379a000000000000000000000000000000000000000000000000000000000815260040161067e90610aa6565b60405180910390fd5b6004544210156106cc576040517f08c379a00000000000000000000000000000000000000000000000000000000081526004016106c390610a06565b60405180910390fd5b6001600560016101000a81548160ff02191690831515021790555060008054906101000a900473ffffffffffffffffffffffffffffffffffffffff1673ffffffffffffffffffffffffffffffffffffffff166108fc6003549081150290604051600060405180830381858888f1935050505015801561074f573d6000803e3d6000fd5b5060008054906101000a900473ffffffffffffffffffffffffffffffffffffffff1673ffffffffffffffffffffffffffffffffffffffff167fac2a38716bf0fa9fa1a52e859663398120e11fa721ea31fe0682199b9fd367e760405160405180910390a2565b6000813590506107c481610c49565b92915050565b6000602082840312156107e0576107df610b4e565b5b60006107ee848285016107b5565b91505092915050565b61080081610af2565b82525050565b61080f81610b04565b82525050565b61081e81610b10565b82525050565b61083561083082610b10565b610b44565b82525050565b6000610848601383610ae1565b915061085382610b53565b602082019050919050565b600061086b601483610ae1565b915061087682610b7c565b602082019050919050565b600061088e600c83610ae1565b915061089982610ba5565b602082019050919050565b60006108b1601783610ae1565b91506108bc82610bce565b602082019050919050565b60006108d4601183610ae1565b91506108df82610bf7565b602082019050919050565b60006108f7601583610ae1565b915061090282610c20565b602082019050919050565b61091681610b3a565b82525050565b60006109288284610824565b60208201915081905092915050565b600060208201905061094c60008301846107f7565b92915050565b600061010082019050610968600083018b6107f7565b610975602083018a6107f7565b610982604083018961090d565b61098f6060830188610815565b61099c608083018761090d565b6109a960a0830186610806565b6109b660c0830185610806565b6109c360e083018461090d565b9998505050505050505050565b60006020820190506109e56000830184610806565b92915050565b6000602082019050610a006000830184610815565b92915050565b60006020820190508181036000830152610a1f8161083b565b9050919050565b60006020820190508181036000830152610a3f8161085e565b9050919050565b60006020820190508181036000830152610a5f81610881565b9050919050565b60006020820190508181036000830152610a7f816108a4565b9050919050565b60006020820190508181036000830152610a9f816108c7565b9050919050565b60006020820190508181036000830152610abf816108ea565b9050919050565b6000602082019050610adb600083018461090d565b92915050565b600082825260208201905092915050565b6000610afd82610b1a565b9050919050565b60008115159050919050565b6000819050919050565b600073ffffffffffffffffffffffffffffffffffffffff82169050919050565b6000819050919050565b6000819050919050565b600080fd5b7f546f6f206561726c7920746f2063616e63656c00000000000000000000000000600082015250565b7f546f6f206c61746520746f207769746864726177000000000000000000000000600082015250565b7f57726f6e67207365637265740000000000000000000000000000000000000000600082015250565b7f4f6e6c792074616b65722063616e207769746864726177000000000000000000600082015250565b7f416c726561647920636f6d706c65746564000000000000000000000000000000600082015250565b7f4f6e6c79206d616b65722063616e2063616e63656c0000000000000000000000600082015250565b610c5281610b10565b8114610c5d57600080fd5b5056fea26474726f6e5822122047678918ac431143ca19fd992ab2fc3af71451e5feed04d941121ca15e9b415a64736f6c63430008060033",
  "source": "// SPDX-License-Identifier: MIT\npragma solidity >=0.4.22 <0.9.0;\n\n/**\n * @title HTLCEscrow\n * @dev Hash Time Lock Contract for cross-chain atomic swaps using native TRX\n * @notice Simple, gas-efficient escrow for 1inch-style cross-chain swaps\n */\ncontract HTLCEscrow {\n    \n    address public maker;      // Who created the escrow\n    address public taker;      // Who can claim with secret\n    bytes32 public hashlock;   // Hash of the secret\n    uint256 public amount;     // TRX amount locked\n    uint256 public timelock;   // When cancellation becomes possible\n    bool public withdrawn;     // Has been withdrawn\n    bool public cancelled;     // Has been cancelled\n    \n    event EscrowCreated(\n        address indexed maker,\n        address indexed taker,\n        uint256 amount,\n        bytes32 hashlock,\n        uint256 timelock\n    );\n    \n    event EscrowWithdrawn(address indexed taker, bytes32 secret);\n    event EscrowCancelled(address indexed maker);\n    \n    /**\n     * @dev Create escrow with TRX\n     * @param _taker Who can claim the funds\n     * @param _hashlock Hash of secret (use keccak256)\n     * @param _timelock Seconds from now when maker can cancel\n     */\n    constructor(\n        address _taker,\n        bytes32 _hashlock,\n        uint256 _timelock\n    ) payable {\n        require(msg.value > 0, \"Must send TRX\");\n        require(_taker != address(0), \"Invalid taker\");\n        require(_hashlock != bytes32(0), \"Invalid hashlock\");\n        require(_timelock > 0, \"Invalid timelock\");\n        \n        maker = msg.sender;\n        taker = _taker;\n        hashlock = _hashlock;\n        amount = msg.value;\n        timelock = block.timestamp + _timelock;\n        \n        emit EscrowCreated(maker, taker, amount, hashlock, timelock);\n    }\n    \n    /**\n     * @dev Taker withdraws by revealing secret\n     * @param _secret The secret that matches hashlock\n     */\n    function withdraw(bytes32 _secret) external {\n        require(!withdrawn && !cancelled, \"Already completed\");\n        require(msg.sender == taker, \"Only taker can withdraw\");\n        require(keccak256(abi.encodePacked(_secret)) == hashlock, \"Wrong secret\");\n        require(block.timestamp < timelock, \"Too late to withdraw\");\n        \n        withdrawn = true;\n        payable(taker).transfer(amount);\n        \n        emit EscrowWithdrawn(taker, _secret);\n    }\n    \n    /**\n     * @dev Maker cancels after timelock expires\n     */\n    function cancel() external {\n        require(!withdrawn && !cancelled, \"Already completed\");\n        require(msg.sender == maker, \"Only maker can cancel\");\n        require(block.timestamp >= timelock, \"Too early to cancel\");\n        \n        cancelled = true;\n        payable(maker).transfer(amount);\n        \n        emit EscrowCancelled(maker);\n    }\n    \n    /**\n     * @dev Check current status\n     */\n    function getStatus() external view returns (\n        address _maker,\n        address _taker,\n        uint256 _amount,\n        bytes32 _hashlock,\n        uint256 _timelock,\n        bool _withdrawn,\n        bool _cancelled,\n        uint256 _currentTime\n    ) {\n        return (maker, taker, amount, hashlock, timelock, withdrawn, cancelled, block.timestamp);\n    }\n}\n",
  "sourcePath": "/home/ubu24/1inch/tron/contracts/HTLCEscrow.sol",
  "compiler": {
    "name": "solc",
    "version": "0.8.6+commit.0e36fba0.mod.Emscripten.clang"
  },
  "schemaVersion": "2.0.1",
  "updatedAt": "2025-07-27T15:59:57.497Z"
}