{
  "contractName": "MinimalTest",
  "abi": [
    {
      "inputs": [],
      "stateMutability": "nonpayable",
      "type": "constructor"
    },
    {
      "inputs": [],
      "name": "getValue",
      "outputs": [
        {
          "internalType": "uint256",
          "name": "",
          "type": "uint256"
        }
      ],
      "stateMutability": "view",
      "type": "function"
    },
    {
      "inputs": [],
      "name": "owner",
      "outputs": [
        {
          "internalType": "address",
          "name": "",
          "type": "address"
        }
      ],
      "stateMutability": "view",
      "type": "function"
    },
    {
      "inputs": [
        {
          "internalType": "uint256",
          "name": "_value",
          "type": "uint256"
        }
      ],
      "name": "setValue",
      "outputs": [],
      "stateMutability": "nonpayable",
      "type": "function"
    },
    {
      "inputs": [],
      "name": "value",
      "outputs": [
        {
          "internalType": "uint256",
          "name": "",
          "type": "uint256"
        }
      ],
      "stateMutability": "view",
      "type": "function"
    }
  ],
  "bytecode": "0x608060405234801561001057600080fd5b50d3801561001d57600080fd5b50d2801561002a57600080fd5b5033600160006101000a81548173ffffffffffffffffffffffffffffffffffffffff021916908373ffffffffffffffffffffffffffffffffffffffff160217905550602a600081905550610244806100836000396000f3fe608060405234801561001057600080fd5b50d3801561001d57600080fd5b50d2801561002a57600080fd5b50600436106100665760003560e01c8063209652551461006b5780633fa4f2451461008957806355241077146100a75780638da5cb5b146100c3575b600080fd5b6100736100e1565b604051610080919061019b565b60405180910390f35b6100916100ea565b60405161009e919061019b565b60405180910390f35b6100c160048036038101906100bc9190610135565b6100f0565b005b6100cb6100fa565b6040516100d89190610180565b60405180910390f35b60008054905090565b60005481565b8060008190555050565b600160009054906101000a900473ffffffffffffffffffffffffffffffffffffffff1681565b60008135905061012f816101f7565b92915050565b60006020828403121561014b5761014a6101f2565b5b600061015984828501610120565b91505092915050565b61016b816101b6565b82525050565b61017a816101e8565b82525050565b60006020820190506101956000830184610162565b92915050565b60006020820190506101b06000830184610171565b92915050565b60006101c1826101c8565b9050919050565b600073ffffffffffffffffffffffffffffffffffffffff82169050919050565b6000819050919050565b600080fd5b610200816101e8565b811461020b57600080fd5b5056fea26474726f6e58221220fd865cbe8ed0f9fab8ce4940e2d3e75d54710bd579e7a9f608ce75ed661bbbaf64736f6c63430008060033",
  "source": "// SPDX-License-Identifier: MIT\npragma solidity >=0.4.22 <0.9.0;\n\ncontract MinimalTest {\n    uint256 public value;\n    address public owner;\n    \n    constructor() {\n        owner = msg.sender;\n        value = 42;\n    }\n    \n    function setValue(uint256 _value) external {\n        value = _value;\n    }\n    \n    function getValue() external view returns (uint256) {\n        return value;\n    }\n}\n",
  "sourcePath": "/home/ubu24/1inch/tron/contracts/MinimalTest.sol",
  "compiler": {
    "name": "solc",
    "version": "0.8.6+commit.0e36fba0.mod.Emscripten.clang"
  },
  "schemaVersion": "2.0.1",
  "updatedAt": "2025-07-27T15:20:33.611Z"
}