{
  "contractName": "MinimalEscrow",
  "abi": [
    {
      "inputs": [
        {
          "internalType": "address",
          "name": "_taker",
          "type": "address"
        },
        {
          "internalType": "bytes32",
          "name": "_hashlock",
          "type": "bytes32"
        },
        {
          "internalType": "uint256",
          "name": "_delay",
          "type": "uint256"
        }
      ],
      "stateMutability": "payable",
      "type": "constructor"
    },
    {
      "anonymous": false,
      "inputs": [
        {
          "indexed": false,
          "internalType": "address",
          "name": "taker",
          "type": "address"
        }
      ],
      "name": "EscrowCompleted",
      "type": "event"
    },
    {
      "anonymous": false,
      "inputs": [
        {
          "indexed": false,
          "internalType": "address",
          "name": "maker",
          "type": "address"
        },
        {
          "indexed": false,
          "internalType": "address",
          "name": "taker",
          "type": "address"
        },
        {
          "indexed": false,
          "internalType": "uint256",
          "name": "amount",
          "type": "uint256"
        }
      ],
      "name": "EscrowCreated",
      "type": "event"
    },
    {
      "inputs": [],
      "name": "amount",
      "outputs": [
        {
          "internalType": "uint256",
          "name": "",
          "type": "uint256"
        }
      ],
      "stateMutability": "view",
      "type": "function"
    },
    {
      "inputs": [],
      "name": "cancel",
      "outputs": [],
      "stateMutability": "nonpayable",
      "type": "function"
    },
    {
      "inputs": [],
      "name": "completed",
      "outputs": [
        {
          "internalType": "bool",
          "name": "",
          "type": "bool"
        }
      ],
      "stateMutability": "view",
      "type": "function"
    },
    {
      "inputs": [],
      "name": "hashlock",
      "outputs": [
        {
          "internalType": "bytes32",
          "name": "",
          "type": "bytes32"
        }
      ],
      "stateMutability": "view",
      "type": "function"
    },
    {
      "inputs": [],
      "name": "maker",
      "outputs": [
        {
          "internalType": "address",
          "name": "",
          "type": "address"
        }
      ],
      "stateMutability": "view",
      "type": "function"
    },
    {
      "inputs": [],
      "name": "taker",
      "outputs": [
        {
          "internalType": "address",
          "name": "",
          "type": "address"
        }
      ],
      "stateMutability": "view",
      "type": "function"
    },
    {
      "inputs": [],
      "name": "unlockTime",
      "outputs": [
        {
          "internalType": "uint256",
          "name": "",
          "type": "uint256"
        }
      ],
      "stateMutability": "view",
      "type": "function"
    },
    {
      "inputs": [
        {
          "internalType": "bytes32",
          "name": "secret",
          "type": "bytes32"
        }
      ],
      "name": "withdraw",
      "outputs": [],
      "stateMutability": "nonpayable",
      "type": "function"
    }
  ],
  "bytecode": "0x60806040526040516200106838038062001068833981810160405281019062000029919062000261565b600034116200006f576040517f08c379a000000000000000000000000000000000000000000000000000000000815260040162000066906200036a565b60405180910390fd5b600073ffffffffffffffffffffffffffffffffffffffff168373ffffffffffffffffffffffffffffffffffffffff161415620000e2576040517f08c379a0000000000000000000000000000000000000000000000000000000008152600401620000d9906200038c565b60405180910390fd5b336000806101000a81548173ffffffffffffffffffffffffffffffffffffffff021916908373ffffffffffffffffffffffffffffffffffffffff16021790555082600160006101000a81548173ffffffffffffffffffffffffffffffffffffffff021916908373ffffffffffffffffffffffffffffffffffffffff160217905550816002819055503460038190555080426200017f9190620003bf565b6004819055507f78da7430b15648a5954de6bf3f6dc65a9eb64c292537d89a2a9989fdd367992360008054906101000a900473ffffffffffffffffffffffffffffffffffffffff16600160009054906101000a900473ffffffffffffffffffffffffffffffffffffffff16600354604051620001fe939291906200032d565b60405180910390a150505062000559565b60008151905062000220816200050b565b6200022b816200041c565b905092915050565b600081519050620002448162000525565b92915050565b6000815190506200025b816200053f565b92915050565b6000806000606084860312156200027d576200027c620004b4565b5b60006200028d868287016200020f565b9350506020620002a08682870162000233565b9250506040620002b3868287016200024a565b9150509250925092565b620002c8816200041c565b82525050565b6000620002dd600883620003ae565b9150620002ea82620004b9565b602082019050919050565b600062000304600d83620003ae565b91506200031182620004e2565b602082019050919050565b62000327816200047b565b82525050565b6000606082019050620003446000830186620002bd565b620003536020830185620002bd565b6200036260408301846200031c565b949350505050565b600060208201905081810360008301526200038581620002ce565b9050919050565b60006020820190508181036000830152620003a781620002f5565b9050919050565b600082825260208201905092915050565b6000620003cc826200047b565b9150620003d9836200047b565b9250827fffffffffffffffffffffffffffffffffffffffffffffffffffffffffffffffff0382111562000411576200041062000485565b5b828201905092915050565b600062000429826200043a565b9050919050565b6000819050919050565b600073ffffffffffffffffffffffffffffffffffffffff82169050919050565b600074ffffffffffffffffffffffffffffffffffffffffff82169050919050565b6000819050919050565b7f4e487b7100000000000000000000000000000000000000000000000000000000600052601160045260246000fd5b600080fd5b7f4e65656420545258000000000000000000000000000000000000000000000000600082015250565b7f496e76616c69642074616b657200000000000000000000000000000000000000600082015250565b62000516816200045a565b81146200052257600080fd5b50565b620005308162000430565b81146200053c57600080fd5b50565b6200054a816200047b565b81146200055657600080fd5b50565b610aff80620005696000396000f3fe608060405234801561001057600080fd5b50d3801561001d57600080fd5b50d2801561002a57600080fd5b50600436106100a25760003560e01c80639d9a7fe9116100755780639d9a7fe91461011d578063a782086e1461013b578063aa8c217c14610159578063ea8a1af014610177576100a2565b8063251c1aa3146100a757806350655d8c146100c5578063782b3602146100e35780638e19899e14610101575b600080fd5b6100af610181565b6040516100bc91906108aa565b60405180910390f35b6100cd610187565b6040516100da9190610799565b60405180910390f35b6100eb6101ab565b6040516100f89190610799565b60405180910390f35b61011b6004803603810190610116919061062c565b6101d1565b005b610125610442565b60405161013291906107b4565b60405180910390f35b610143610455565b60405161015091906107cf565b60405180910390f35b61016161045b565b60405161016e91906108aa565b60405180910390f35b61017f610461565b005b60045481565b60008054906101000a900473ffffffffffffffffffffffffffffffffffffffff1681565b600160009054906101000a900473ffffffffffffffffffffffffffffffffffffffff1681565b600560009054906101000a900460ff1615610221576040517f08c379a0000000000000000000000000000000000000000000000000000000008152600401610218906107ea565b60405180910390fd5b600160009054906101000a900473ffffffffffffffffffffffffffffffffffffffff1673ffffffffffffffffffffffffffffffffffffffff163373ffffffffffffffffffffffffffffffffffffffff16146102b1576040517f08c379a00000000000000000000000000000000000000000000000000000000081526004016102a89061084a565b60405180910390fd5b6004544210156102f6576040517f08c379a00000000000000000000000000000000000000000000000000000000081526004016102ed9061082a565b60405180910390fd5b6002548160405160200161030a919061077e565b6040516020818303038152906040528051906020012014610360576040517f08c379a00000000000000000000000000000000000000000000000000000000081526004016103579061088a565b60405180910390fd5b6001600560006101000a81548160ff021916908315150217905550600160009054906101000a900473ffffffffffffffffffffffffffffffffffffffff1673ffffffffffffffffffffffffffffffffffffffff166108fc6003549081150290604051600060405180830381858888f193505050501580156103e5573d6000803e3d6000fd5b507f6772007ccc978fbe1b72645247eddf6d15a57d8a4d2f8df768a9a76220fb3cff600160009054906101000a900473ffffffffffffffffffffffffffffffffffffffff166040516104379190610799565b60405180910390a150565b600560009054906101000a900460ff1681565b60025481565b60035481565b600560009054906101000a900460ff16156104b1576040517f08c379a00000000000000000000000000000000000000000000000000000000081526004016104a8906107ea565b60405180910390fd5b60008054906101000a900473ffffffffffffffffffffffffffffffffffffffff1673ffffffffffffffffffffffffffffffffffffffff163373ffffffffffffffffffffffffffffffffffffffff161461053f576040517f08c379a00000000000000000000000000000000000000000000000000000000081526004016105369061086a565b60405180910390fd5b61012c60045461054f91906108d6565b421015610591576040517f08c379a00000000000000000000000000000000000000000000000000000000081526004016105889061080a565b60405180910390fd5b6001600560006101000a81548160ff02191690831515021790555060008054906101000a900473ffffffffffffffffffffffffffffffffffffffff1673ffffffffffffffffffffffffffffffffffffffff166108fc6003549081150290604051600060405180830381858888f19350505050158015610614573d6000803e3d6000fd5b50565b60008135905061062681610ab2565b92915050565b600060208284031215610642576106416109b7565b5b600061065084828501610617565b91505092915050565b6106628161092c565b82525050565b6106718161093e565b82525050565b6106808161094a565b82525050565b6106976106928261094a565b61097e565b82525050565b60006106aa6004836108c5565b91506106b5826109bc565b602082019050919050565b60006106cd6013836108c5565b91506106d8826109e5565b602082019050919050565b60006106f06009836108c5565b91506106fb82610a0e565b602082019050919050565b60006107136009836108c5565b915061071e82610a37565b602082019050919050565b60006107366009836108c5565b915061074182610a60565b602082019050919050565b6000610759600c836108c5565b915061076482610a89565b602082019050919050565b61077881610974565b82525050565b600061078a8284610686565b60208201915081905092915050565b60006020820190506107ae6000830184610659565b92915050565b60006020820190506107c96000830184610668565b92915050565b60006020820190506107e46000830184610677565b92915050565b600060208201905081810360008301526108038161069d565b9050919050565b60006020820190508181036000830152610823816106c0565b9050919050565b60006020820190508181036000830152610843816106e3565b9050919050565b6000602082019050818103600083015261086381610706565b9050919050565b6000602082019050818103600083015261088381610729565b9050919050565b600060208201905081810360008301526108a38161074c565b9050919050565b60006020820190506108bf600083018461076f565b92915050565b600082825260208201905092915050565b60006108e182610974565b91506108ec83610974565b9250827fffffffffffffffffffffffffffffffffffffffffffffffffffffffffffffffff0382111561092157610920610988565b5b828201905092915050565b600061093782610954565b9050919050565b60008115159050919050565b6000819050919050565b600073ffffffffffffffffffffffffffffffffffffffff82169050919050565b6000819050919050565b6000819050919050565b7f4e487b7100000000000000000000000000000000000000000000000000000000600052601160045260246000fd5b600080fd5b7f446f6e6500000000000000000000000000000000000000000000000000000000600082015250565b7f546f6f206561726c7920746f2063616e63656c00000000000000000000000000600082015250565b7f546f6f206561726c790000000000000000000000000000000000000000000000600082015250565b7f4e6f742074616b65720000000000000000000000000000000000000000000000600082015250565b7f4e6f74206d616b65720000000000000000000000000000000000000000000000600082015250565b7f57726f6e67207365637265740000000000000000000000000000000000000000600082015250565b610abb8161094a565b8114610ac657600080fd5b5056fea26474726f6e58221220695a15944a2b6f7be7a7bd3265b765c7b47c0134bc5cc5a89d5ba9de16dd8c7464736f6c63430008060033",
  "source": "// SPDX-License-Identifier: MIT\npragma solidity >=0.4.22 <0.9.0;\n\n/**\n * @title MinimalEscrow\n * @dev Absolute minimal escrow contract to reduce energy usage\n * @notice Native TRX only, no tokens, minimal operations\n */\ncontract MinimalEscrow {\n    \n    address public maker;\n    address public taker;\n    bytes32 public hashlock;\n    uint256 public amount;\n    uint256 public unlockTime;\n    bool public completed;\n    \n    event EscrowCreated(address maker, address taker, uint256 amount);\n    event EscrowCompleted(address taker);\n    \n    constructor(\n        address _taker,\n        bytes32 _hashlock,\n        uint256 _delay\n    ) payable {\n        require(msg.value > 0, \"Need TRX\");\n        require(_taker != address(0), \"Invalid taker\");\n        \n        maker = msg.sender;\n        taker = _taker;\n        hashlock = _hashlock;\n        amount = msg.value;\n        unlockTime = block.timestamp + _delay;\n        \n        emit EscrowCreated(maker, taker, amount);\n    }\n    \n    function withdraw(bytes32 secret) external {\n        require(!completed, \"Done\");\n        require(msg.sender == taker, \"Not taker\");\n        require(block.timestamp >= unlockTime, \"Too early\");\n        require(keccak256(abi.encodePacked(secret)) == hashlock, \"Wrong secret\");\n        \n        completed = true;\n        payable(taker).transfer(amount);\n        \n        emit EscrowCompleted(taker);\n    }\n    \n    function cancel() external {\n        require(!completed, \"Done\");\n        require(msg.sender == maker, \"Not maker\");\n        require(block.timestamp >= unlockTime + 300, \"Too early to cancel\");\n        \n        completed = true;\n        payable(maker).transfer(amount);\n    }\n}\n",
  "sourcePath": "/home/ubu24/1inch/tron/contracts/MinimalEscrow.sol",
  "compiler": {
    "name": "solc",
    "version": "0.8.6+commit.0e36fba0.mod.Emscripten.clang"
  },
  "schemaVersion": "2.0.1",
  "updatedAt": "2025-07-27T16:00:08.410Z"
}