{
  "contractName": "SimpleEscrow",
  "abi": [
    {
      "inputs": [
        {
          "internalType": "address",
          "name": "_taker",
          "type": "address"
        },
        {
          "internalType": "uint256",
          "name": "_amount",
          "type": "uint256"
        },
        {
          "internalType": "bytes32",
          "name": "_hashlock",
          "type": "bytes32"
        }
      ],
      "stateMutability": "payable",
      "type": "constructor"
    },
    {
      "anonymous": false,
      "inputs": [
        {
          "indexed": false,
          "internalType": "address",
          "name": "taker",
          "type": "address"
        }
      ],
      "name": "EscrowCompleted",
      "type": "event"
    },
    {
      "anonymous": false,
      "inputs": [
        {
          "indexed": false,
          "internalType": "address",
          "name": "maker",
          "type": "address"
        },
        {
          "indexed": false,
          "internalType": "address",
          "name": "taker",
          "type": "address"
        },
        {
          "indexed": false,
          "internalType": "uint256",
          "name": "amount",
          "type": "uint256"
        }
      ],
      "name": "EscrowCreated",
      "type": "event"
    },
    {
      "inputs": [],
      "name": "amount",
      "outputs": [
        {
          "internalType": "uint256",
          "name": "",
          "type": "uint256"
        }
      ],
      "stateMutability": "view",
      "type": "function"
    },
    {
      "inputs": [],
      "name": "completed",
      "outputs": [
        {
          "internalType": "bool",
          "name": "",
          "type": "bool"
        }
      ],
      "stateMutability": "view",
      "type": "function"
    },
    {
      "inputs": [],
      "name": "getBalance",
      "outputs": [
        {
          "internalType": "uint256",
          "name": "",
          "type": "uint256"
        }
      ],
      "stateMutability": "view",
      "type": "function"
    },
    {
      "inputs": [],
      "name": "hashlock",
      "outputs": [
        {
          "internalType": "bytes32",
          "name": "",
          "type": "bytes32"
        }
      ],
      "stateMutability": "view",
      "type": "function"
    },
    {
      "inputs": [],
      "name": "maker",
      "outputs": [
        {
          "internalType": "address",
          "name": "",
          "type": "address"
        }
      ],
      "stateMutability": "view",
      "type": "function"
    },
    {
      "inputs": [],
      "name": "taker",
      "outputs": [
        {
          "internalType": "address",
          "name": "",
          "type": "address"
        }
      ],
      "stateMutability": "view",
      "type": "function"
    },
    {
      "inputs": [
        {
          "internalType": "bytes32",
          "name": "secret",
          "type": "bytes32"
        }
      ],
      "name": "withdraw",
      "outputs": [],
      "stateMutability": "nonpayable",
      "type": "function"
    }
  ],
  "bytecode": "0x608060405260405162000a5c38038062000a5c8339818101604052810190620000299190620001af565b336000806101000a81548173ffffffffffffffffffffffffffffffffffffffff021916908373ffffffffffffffffffffffffffffffffffffffff16021790555082600160006101000a81548173ffffffffffffffffffffffffffffffffffffffff021916908373ffffffffffffffffffffffffffffffffffffffff16021790555081600281905550806003819055506000600460006101000a81548160ff0219169083151502179055507f78da7430b15648a5954de6bf3f6dc65a9eb64c292537d89a2a9989fdd367992360008054906101000a900473ffffffffffffffffffffffffffffffffffffffff16600160009054906101000a900473ffffffffffffffffffffffffffffffffffffffff166002546040516200014c939291906200022d565b60405180910390a150505062000326565b6000815190506200016e81620002d8565b62000179816200026a565b905092915050565b6000815190506200019281620002f2565b92915050565b600081519050620001a9816200030c565b92915050565b600080600060608486031215620001cb57620001ca620002d3565b5b6000620001db868287016200015d565b9350506020620001ee8682870162000198565b9250506040620002018682870162000181565b9150509250925092565b62000216816200026a565b82525050565b6200022781620002c9565b82525050565b60006060820190506200024460008301866200020b565b6200025360208301856200020b565b6200026260408301846200021c565b949350505050565b6000620002778262000288565b9050919050565b6000819050919050565b600073ffffffffffffffffffffffffffffffffffffffff82169050919050565b600074ffffffffffffffffffffffffffffffffffffffffff82169050919050565b6000819050919050565b600080fd5b620002e381620002a8565b8114620002ef57600080fd5b50565b620002fd816200027e565b81146200030957600080fd5b50565b6200031781620002c9565b81146200032357600080fd5b50565b61072680620003366000396000f3fe608060405234801561001057600080fd5b50d3801561001d57600080fd5b50d2801561002a57600080fd5b50600436106100975760003560e01c80638e19899e116100755780638e19899e146100f65780639d9a7fe914610112578063a782086e14610130578063aa8c217c1461014e57610097565b806312065fe01461009c57806350655d8c146100ba578063782b3602146100d8575b600080fd5b6100a461016c565b6040516100b191906105d1565b60405180910390f35b6100c2610174565b6040516100cf9190610520565b60405180910390f35b6100e0610198565b6040516100ed9190610520565b60405180910390f35b610110600480360381019061010b919061041c565b6101be565b005b61011a6103e8565b604051610127919061053b565b60405180910390f35b6101386103fb565b6040516101459190610556565b60405180910390f35b610156610401565b60405161016391906105d1565b60405180910390f35b600047905090565b60008054906101000a900473ffffffffffffffffffffffffffffffffffffffff1681565b600160009054906101000a900473ffffffffffffffffffffffffffffffffffffffff1681565b600460009054906101000a900460ff161561020e576040517f08c379a0000000000000000000000000000000000000000000000000000000008152600401610205906105b1565b60405180910390fd5b600160009054906101000a900473ffffffffffffffffffffffffffffffffffffffff1673ffffffffffffffffffffffffffffffffffffffff163373ffffffffffffffffffffffffffffffffffffffff161461029e576040517f08c379a000000000000000000000000000000000000000000000000000000000815260040161029590610591565b60405180910390fd5b600354816040516020016102b29190610505565b6040516020818303038152906040528051906020012014610308576040517f08c379a00000000000000000000000000000000000000000000000000000000081526004016102ff90610571565b60405180910390fd5b6001600460006101000a81548160ff021916908315150217905550600160009054906101000a900473ffffffffffffffffffffffffffffffffffffffff1673ffffffffffffffffffffffffffffffffffffffff166108fc479081150290604051600060405180830381858888f1935050505015801561038b573d6000803e3d6000fd5b507f6772007ccc978fbe1b72645247eddf6d15a57d8a4d2f8df768a9a76220fb3cff600160009054906101000a900473ffffffffffffffffffffffffffffffffffffffff166040516103dd9190610520565b60405180910390a150565b600460009054906101000a900460ff1681565b60035481565b60025481565b600081359050610416816106d9565b92915050565b60006020828403121561043257610431610659565b5b600061044084828501610407565b91505092915050565b610452816105fd565b82525050565b6104618161060f565b82525050565b6104708161061b565b82525050565b6104876104828261061b565b61064f565b82525050565b600061049a600e836105ec565b91506104a58261065e565b602082019050919050565b60006104bd6017836105ec565b91506104c882610687565b602082019050919050565b60006104e06011836105ec565b91506104eb826106b0565b602082019050919050565b6104ff81610645565b82525050565b60006105118284610476565b60208201915081905092915050565b60006020820190506105356000830184610449565b92915050565b60006020820190506105506000830184610458565b92915050565b600060208201905061056b6000830184610467565b92915050565b6000602082019050818103600083015261058a8161048d565b9050919050565b600060208201905081810360008301526105aa816104b0565b9050919050565b600060208201905081810360008301526105ca816104d3565b9050919050565b60006020820190506105e660008301846104f6565b92915050565b600082825260208201905092915050565b600061060882610625565b9050919050565b60008115159050919050565b6000819050919050565b600073ffffffffffffffffffffffffffffffffffffffff82169050919050565b6000819050919050565b6000819050919050565b600080fd5b7f496e76616c696420736563726574000000000000000000000000000000000000600082015250565b7f4f6e6c792074616b65722063616e207769746864726177000000000000000000600082015250565b7f416c726561647920636f6d706c65746564000000000000000000000000000000600082015250565b6106e28161061b565b81146106ed57600080fd5b5056fea26474726f6e582212203ff6730ea7f4ed6ce60892f11fc58550e2df87a3d35c661d3bdcb437a82972c264736f6c63430008060033",
  "source": "// SPDX-License-Identifier: MIT\npragma solidity >=0.4.22 <0.9.0;\n\n/**\n * @title SimpleEscrow\n * @dev Minimal escrow contract for testing deployment\n */\ncontract SimpleEscrow {\n    address public maker;\n    address public taker;\n    uint256 public amount;\n    bytes32 public hashlock;\n    bool public completed;\n    \n    event EscrowCreated(address maker, address taker, uint256 amount);\n    event EscrowCompleted(address taker);\n    \n    constructor(address _taker, uint256 _amount, bytes32 _hashlock) payable {\n        maker = msg.sender;\n        taker = _taker;\n        amount = _amount;\n        hashlock = _hashlock;\n        completed = false;\n        \n        emit EscrowCreated(maker, taker, amount);\n    }\n    \n    function withdraw(bytes32 secret) external {\n        require(!completed, \"Already completed\");\n        require(msg.sender == taker, \"Only taker can withdraw\");\n        require(keccak256(abi.encodePacked(secret)) == hashlock, \"Invalid secret\");\n        \n        completed = true;\n        payable(taker).transfer(address(this).balance);\n        \n        emit EscrowCompleted(taker);\n    }\n    \n    function getBalance() external view returns (uint256) {\n        return address(this).balance;\n    }\n}\n",
  "sourcePath": "/home/ubu24/1inch/tron/contracts/SimpleEscrow.sol",
  "compiler": {
    "name": "solc",
    "version": "0.8.6+commit.0e36fba0.mod.Emscripten.clang"
  },
  "schemaVersion": "2.0.1",
  "updatedAt": "2025-07-27T16:00:00.102Z"
}