{
  "contractName": "TronEscrowDebug",
  "abi": [
    {
      "inputs": [
        {
          "internalType": "address",
          "name": "_taker",
          "type": "address"
        },
        {
          "internalType": "address",
          "name": "_token",
          "type": "address"
        },
        {
          "internalType": "uint256",
          "name": "_amount",
          "type": "uint256"
        },
        {
          "internalType": "bytes32",
          "name": "_hashlock",
          "type": "bytes32"
        },
        {
          "internalType": "uint256",
          "name": "_withdrawDelay",
          "type": "uint256"
        },
        {
          "internalType": "uint256",
          "name": "_cancelDelay",
          "type": "uint256"
        }
      ],
      "stateMutability": "payable",
      "type": "constructor"
    },
    {
      "anonymous": false,
      "inputs": [
        {
          "indexed": false,
          "internalType": "string",
          "name": "message",
          "type": "string"
        },
        {
          "indexed": false,
          "internalType": "uint256",
          "name": "value",
          "type": "uint256"
        }
      ],
      "name": "DebugInfo",
      "type": "event"
    },
    {
      "anonymous": false,
      "inputs": [
        {
          "indexed": true,
          "internalType": "address",
          "name": "maker",
          "type": "address"
        },
        {
          "indexed": true,
          "internalType": "address",
          "name": "taker",
          "type": "address"
        },
        {
          "indexed": true,
          "internalType": "address",
          "name": "token",
          "type": "address"
        },
        {
          "indexed": false,
          "internalType": "uint256",
          "name": "amount",
          "type": "uint256"
        },
        {
          "indexed": false,
          "internalType": "bytes32",
          "name": "hashlock",
          "type": "bytes32"
        }
      ],
      "name": "EscrowCreated",
      "type": "event"
    },
    {
      "inputs": [],
      "name": "MINIMUM_SAFETY_DEPOSIT",
      "outputs": [
        {
          "internalType": "uint256",
          "name": "",
          "type": "uint256"
        }
      ],
      "stateMutability": "view",
      "type": "function"
    },
    {
      "inputs": [],
      "name": "cancel",
      "outputs": [],
      "stateMutability": "nonpayable",
      "type": "function"
    },
    {
      "inputs": [],
      "name": "escrow",
      "outputs": [
        {
          "internalType": "address",
          "name": "maker",
          "type": "address"
        },
        {
          "internalType": "address",
          "name": "taker",
          "type": "address"
        },
        {
          "internalType": "address",
          "name": "token",
          "type": "address"
        },
        {
          "internalType": "uint256",
          "name": "amount",
          "type": "uint256"
        },
        {
          "internalType": "bytes32",
          "name": "hashlock",
          "type": "bytes32"
        },
        {
          "internalType": "uint256",
          "name": "withdrawStart",
          "type": "uint256"
        },
        {
          "internalType": "uint256",
          "name": "cancelStart",
          "type": "uint256"
        },
        {
          "internalType": "uint256",
          "name": "safetyDeposit",
          "type": "uint256"
        },
        {
          "internalType": "enum TronEscrowDebug.EscrowState",
          "name": "state",
          "type": "uint8"
        }
      ],
      "stateMutability": "view",
      "type": "function"
    },
    {
      "inputs": [],
      "name": "getEscrowInfo",
      "outputs": [
        {
          "internalType": "address",
          "name": "maker",
          "type": "address"
        },
        {
          "internalType": "address",
          "name": "taker",
          "type": "address"
        },
        {
          "internalType": "address",
          "name": "token",
          "type": "address"
        },
        {
          "internalType": "uint256",
          "name": "amount",
          "type": "uint256"
        },
        {
          "internalType": "bytes32",
          "name": "hashlock",
          "type": "bytes32"
        },
        {
          "internalType": "uint256",
          "name": "withdrawStart",
          "type": "uint256"
        },
        {
          "internalType": "uint256",
          "name": "cancelStart",
          "type": "uint256"
        },
        {
          "internalType": "uint256",
          "name": "safetyDeposit",
          "type": "uint256"
        },
        {
          "internalType": "enum TronEscrowDebug.EscrowState",
          "name": "state",
          "type": "uint8"
        }
      ],
      "stateMutability": "view",
      "type": "function"
    },
    {
      "inputs": [
        {
          "internalType": "bytes32",
          "name": "secret",
          "type": "bytes32"
        }
      ],
      "name": "withdraw",
      "outputs": [],
      "stateMutability": "nonpayable",
      "type": "function"
    }
  ],
  "bytecode": "0x608060405260405162002153380380620021538339818101604052810190620000299190620007bf565b7f269153184c1f85a424e52a094fb652d18b2919c5b16af5508747e5ba69a9c7a1346040516200005a919062000b68565b60405180910390a17f269153184c1f85a424e52a094fb652d18b2919c5b16af5508747e5ba69a9c7a1620f424060405162000096919062000bbc565b60405180910390a1600073ffffffffffffffffffffffffffffffffffffffff168673ffffffffffffffffffffffffffffffffffffffff16141562000111576040517f08c379a0000000000000000000000000000000000000000000000000000000008152600401620001089062000d60565b60405180910390fd5b600073ffffffffffffffffffffffffffffffffffffffff168573ffffffffffffffffffffffffffffffffffffffff16141562000184576040517f08c379a00000000000000000000000000000000000000000000000000000000081526004016200017b9062000c96565b60405180910390fd5b60008411620001ca576040517f08c379a0000000000000000000000000000000000000000000000000000000008152600401620001c19062000bee565b60405180910390fd5b6000801b83141562000213576040517f08c379a00000000000000000000000000000000000000000000000000000000081526004016200020a9062000cda565b60405180910390fd5b81811162000258576040517f08c379a00000000000000000000000000000000000000000000000000000000081526004016200024f9062000b9a565b60405180910390fd5b620f424034101562000316577f269153184c1f85a424e52a094fb652d18b2919c5b16af5508747e5ba69a9c7a13460405162000295919062000d2e565b60405180910390a17f269153184c1f85a424e52a094fb652d18b2919c5b16af5508747e5ba69a9c7a1620f4240604051620002d1919062000db4565b60405180910390a16040517f08c379a00000000000000000000000000000000000000000000000000000000081526004016200030d9062000c42565b60405180910390fd5b7f269153184c1f85a424e52a094fb652d18b2919c5b16af5508747e5ba69a9c7a13460405162000347919062000cfc565b60405180910390a16040518061012001604052803373ffffffffffffffffffffffffffffffffffffffff1681526020018773ffffffffffffffffffffffffffffffffffffffff1681526020018673ffffffffffffffffffffffffffffffffffffffff1681526020018581526020018481526020018342620003c9919062000e24565b81526020018242620003dc919062000e24565b815260200134815260200160006002811115620003fe57620003fd62000f4d565b5b8152506000808201518160000160006101000a81548173ffffffffffffffffffffffffffffffffffffffff021916908373ffffffffffffffffffffffffffffffffffffffff16021790555060208201518160010160006101000a81548173ffffffffffffffffffffffffffffffffffffffff021916908373ffffffffffffffffffffffffffffffffffffffff16021790555060408201518160020160006101000a81548173ffffffffffffffffffffffffffffffffffffffff021916908373ffffffffffffffffffffffffffffffffffffffff160217905550606082015181600301556080820151816004015560a0820151816005015560c0820151816006015560e082015181600701556101008201518160080160006101000a81548160ff0219169083600281111562000538576200053762000f4d565b5b02179055509050507f269153184c1f85a424e52a094fb652d18b2919c5b16af5508747e5ba69a9c7a1600060405162000572919062000d82565b60405180910390a160008573ffffffffffffffffffffffffffffffffffffffff166323b872dd3330886040518463ffffffff1660e01b8152600401620005bb9392919062000b2b565b602060405180830381600087803b158015620005d657600080fd5b505af1158015620005eb573d6000803e3d6000fd5b505050506040513d601f19601f820116820180604052508101906200061191906200085b565b90508062000656576040517f08c379a00000000000000000000000000000000000000000000000000000000081526004016200064d9062000cb8565b60405180910390fd5b7f269153184c1f85a424e52a094fb652d18b2919c5b16af5508747e5ba69a9c7a1600160405162000688919062000c10565b60405180910390a18573ffffffffffffffffffffffffffffffffffffffff168773ffffffffffffffffffffffffffffffffffffffff163373ffffffffffffffffffffffffffffffffffffffff167f8639fd4ba22f4b660bd23fc87829f2c1dd7a12c786934e31bdabd72ba4ccbb0188886040516200070892919062000de6565b60405180910390a47f269153184c1f85a424e52a094fb652d18b2919c5b16af5508747e5ba69a9c7a14260405162000741919062000c64565b60405180910390a15050505050505062001276565b60008151905062000767816200120e565b620007728162000e81565b905092915050565b6000815190506200078b8162001228565b92915050565b600081519050620007a28162001242565b92915050565b600081519050620007b9816200125c565b92915050565b60008060008060008060c08789031215620007df57620007de62000f7c565b5b6000620007ef89828a0162000756565b96505060206200080289828a0162000756565b95505060406200081589828a01620007a8565b94505060606200082889828a0162000791565b93505060806200083b89828a01620007a8565b92505060a06200084e89828a01620007a8565b9150509295509295509295565b60006020828403121562000874576200087362000f7c565b5b600062000884848285016200077a565b91505092915050565b620008988162000e81565b82525050565b620008a98162000ea1565b82525050565b620008ba8162000ef6565b82525050565b620008cb8162000f0a565b82525050565b6000620008e060128362000e13565b9150620008ed8262000f81565b602082019050919050565b600062000907600e8362000e13565b9150620009148262000faa565b602082019050919050565b60006200092e60108362000e13565b91506200093b8262000fd3565b602082019050919050565b600062000955600e8362000e13565b9150620009628262000ffc565b602082019050919050565b60006200097c60148362000e13565b9150620009898262001025565b602082019050919050565b6000620009a3602b8362000e13565b9150620009b0826200104e565b604082019050919050565b6000620009ca60158362000e13565b9150620009d7826200109d565b602082019050919050565b6000620009f1600d8362000e13565b9150620009fe82620010c6565b602082019050919050565b600062000a1860158362000e13565b915062000a2582620010ef565b602082019050919050565b600062000a3f60108362000e13565b915062000a4c8262001118565b602082019050919050565b600062000a6660118362000e13565b915062000a738262001141565b602082019050919050565b600062000a8d60118362000e13565b915062000a9a826200116a565b602082019050919050565b600062000ab4600d8362000e13565b915062000ac18262001193565b602082019050919050565b600062000adb60158362000e13565b915062000ae882620011bc565b602082019050919050565b600062000b0260108362000e13565b915062000b0f82620011e5565b602082019050919050565b62000b258162000eec565b82525050565b600060608201905062000b4260008301866200088d565b62000b5160208301856200088d565b62000b60604083018462000b1a565b949350505050565b6000604082019050818103600083015262000b8381620008d1565b905062000b94602083018462000b1a565b92915050565b6000602082019050818103600083015262000bb581620008f8565b9050919050565b6000604082019050818103600083015262000bd7816200091f565b905062000be8602083018462000b1a565b92915050565b6000602082019050818103600083015262000c098162000946565b9050919050565b6000604082019050818103600083015262000c2b816200096d565b905062000c3c6020830184620008c0565b92915050565b6000602082019050818103600083015262000c5d8162000994565b9050919050565b6000604082019050818103600083015262000c7f81620009bb565b905062000c90602083018462000b1a565b92915050565b6000602082019050818103600083015262000cb181620009e2565b9050919050565b6000602082019050818103600083015262000cd38162000a09565b9050919050565b6000602082019050818103600083015262000cf58162000a30565b9050919050565b6000604082019050818103600083015262000d178162000a57565b905062000d28602083018462000b1a565b92915050565b6000604082019050818103600083015262000d498162000a7e565b905062000d5a602083018462000b1a565b92915050565b6000602082019050818103600083015262000d7b8162000aa5565b9050919050565b6000604082019050818103600083015262000d9d8162000acc565b905062000dae6020830184620008af565b92915050565b6000604082019050818103600083015262000dcf8162000af3565b905062000de0602083018462000b1a565b92915050565b600060408201905062000dfd600083018562000b1a565b62000e0c60208301846200089e565b9392505050565b600082825260208201905092915050565b600062000e318262000eec565b915062000e3e8362000eec565b9250827fffffffffffffffffffffffffffffffffffffffffffffffffffffffffffffffff0382111562000e765762000e7562000f1e565b5b828201905092915050565b600062000e8e8262000eab565b9050919050565b60008115159050919050565b6000819050919050565b600073ffffffffffffffffffffffffffffffffffffffff82169050919050565b600074ffffffffffffffffffffffffffffffffffffffffff82169050919050565b6000819050919050565b600062000f038262000eec565b9050919050565b600062000f178262000eec565b9050919050565b7f4e487b7100000000000000000000000000000000000000000000000000000000600052601160045260246000fd5b7f4e487b7100000000000000000000000000000000000000000000000000000000600052602160045260246000fd5b600080fd5b7f5265636569766564206d73672e76616c75650000000000000000000000000000600082015250565b7f496e76616c69642064656c617973000000000000000000000000000000000000600082015250565b7f5265717569726564206d696e696d756d00000000000000000000000000000000600082015250565b7f496e76616c696420616d6f756e74000000000000000000000000000000000000600082015250565b7f416674657220746f6b656e207472616e73666572000000000000000000000000600082015250565b7f496e73756666696369656e7420736166657479206465706f736974202d20646560008201527f6275672076657273696f6e000000000000000000000000000000000000000000602082015250565b7f436f6e7374727563746f7220636f6d706c657465640000000000000000000000600082015250565b7f496e76616c696420746f6b656e00000000000000000000000000000000000000600082015250565b7f546f6b656e207472616e73666572206661696c65640000000000000000000000600082015250565b7f496e76616c696420686173686c6f636b00000000000000000000000000000000600082015250565b7f536166657479206465706f736974204f4b000000000000000000000000000000600082015250565b7f4641494c45443a206d73672e76616c7565000000000000000000000000000000600082015250565b7f496e76616c69642074616b657200000000000000000000000000000000000000600082015250565b7f4265666f726520746f6b656e207472616e736665720000000000000000000000600082015250565b7f4641494c45443a20726571756972656400000000000000000000000000000000600082015250565b620012198162000ecb565b81146200122557600080fd5b50565b620012338162000e95565b81146200123f57600080fd5b50565b6200124d8162000ea1565b81146200125957600080fd5b50565b620012678162000eec565b81146200127357600080fd5b50565b610ecd80620012866000396000f3fe608060405234801561001057600080fd5b50d3801561001d57600080fd5b50d2801561002a57600080fd5b50600436106100715760003560e01c806309145d7d146100765780638e19899e1461009c578063c1a82772146100b8578063e2fdcc17146100d6578063ea8a1af0146100fc575b600080fd5b61007e610106565b60405161009399989796959493929190610abf565b60405180910390f35b6100b660048036038101906100b1919061092f565b6101d3565b005b6100c0610559565b6040516100cd9190610c55565b60405180910390f35b6100de610560565b6040516100f399989796959493929190610abf565b60405180910390f35b610104610609565b005b60008060008060008060008060008060000160009054906101000a900473ffffffffffffffffffffffffffffffffffffffff16600060010160009054906101000a900473ffffffffffffffffffffffffffffffffffffffff16600060020160009054906101000a900473ffffffffffffffffffffffffffffffffffffffff16600060030154600060040154600060050154600060060154600060070154600060080160009054906101000a900460ff16985098509850985098509850985098509850909192939495969798565b600060028111156101e7576101e6610d02565b5b600060080160009054906101000a900460ff16600281111561020c5761020b610d02565b5b1461024c576040517f08c379a000000000000000000000000000000000000000000000000000000000815260040161024390610b95565b60405180910390fd5b600060010160009054906101000a900473ffffffffffffffffffffffffffffffffffffffff1673ffffffffffffffffffffffffffffffffffffffff163373ffffffffffffffffffffffffffffffffffffffff16146102df576040517f08c379a00000000000000000000000000000000000000000000000000000000081526004016102d690610bf5565b60405180910390fd5b600060050154421015610327576040517f08c379a000000000000000000000000000000000000000000000000000000000815260040161031e90610bd5565b60405180910390fd5b600060060154421061036e576040517f08c379a000000000000000000000000000000000000000000000000000000000815260040161036590610bb5565b60405180910390fd5b600060040154816040516020016103859190610aa4565b60405160208183030381529060405280519060200120146103db576040517f08c379a00000000000000000000000000000000000000000000000000000000081526004016103d290610c35565b60405180910390fd5b6001600060080160006101000a81548160ff0219169083600281111561040457610403610d02565b5b0217905550600060020160009054906101000a900473ffffffffffffffffffffffffffffffffffffffff1673ffffffffffffffffffffffffffffffffffffffff1663a9059cbb600060010160009054906101000a900473ffffffffffffffffffffffffffffffffffffffff166000600301546040518363ffffffff1660e01b8152600401610493929190610b4c565b602060405180830381600087803b1580156104ad57600080fd5b505af11580156104c1573d6000803e3d6000fd5b505050506040513d601f19601f820116820180604052508101906104e59190610902565b506000800160009054906101000a900473ffffffffffffffffffffffffffffffffffffffff1673ffffffffffffffffffffffffffffffffffffffff166108fc6000600701549081150290604051600060405180830381858888f19350505050158015610555573d6000803e3d6000fd5b5050565b620f424081565b60008060000160009054906101000a900473ffffffffffffffffffffffffffffffffffffffff16908060010160009054906101000a900473ffffffffffffffffffffffffffffffffffffffff16908060020160009054906101000a900473ffffffffffffffffffffffffffffffffffffffff16908060030154908060040154908060050154908060060154908060070154908060080160009054906101000a900460ff16905089565b6000600281111561061d5761061c610d02565b5b600060080160009054906101000a900460ff16600281111561064257610641610d02565b5b14610682576040517f08c379a000000000000000000000000000000000000000000000000000000000815260040161067990610b95565b60405180910390fd5b6000800160009054906101000a900473ffffffffffffffffffffffffffffffffffffffff1673ffffffffffffffffffffffffffffffffffffffff163373ffffffffffffffffffffffffffffffffffffffff1614610714576040517f08c379a000000000000000000000000000000000000000000000000000000000815260040161070b90610c15565b60405180910390fd5b60006006015442101561075c576040517f08c379a000000000000000000000000000000000000000000000000000000000815260040161075390610b75565b60405180910390fd5b6002600060080160006101000a81548160ff0219169083600281111561078557610784610d02565b5b0217905550600060020160009054906101000a900473ffffffffffffffffffffffffffffffffffffffff1673ffffffffffffffffffffffffffffffffffffffff1663a9059cbb6000800160009054906101000a900473ffffffffffffffffffffffffffffffffffffffff166000600301546040518363ffffffff1660e01b8152600401610813929190610b4c565b602060405180830381600087803b15801561082d57600080fd5b505af1158015610841573d6000803e3d6000fd5b505050506040513d601f19601f820116820180604052508101906108659190610902565b506000800160009054906101000a900473ffffffffffffffffffffffffffffffffffffffff1673ffffffffffffffffffffffffffffffffffffffff166108fc6000600701549081150290604051600060405180830381858888f193505050501580156108d5573d6000803e3d6000fd5b50565b6000815190506108e781610e69565b92915050565b6000813590506108fc81610e80565b92915050565b60006020828403121561091857610917610d31565b5b6000610926848285016108d8565b91505092915050565b60006020828403121561094557610944610d31565b5b6000610953848285016108ed565b91505092915050565b61096581610c81565b82525050565b61097481610c9f565b82525050565b61098b61098682610c9f565b610cf8565b82525050565b61099a81610ce6565b82525050565b60006109ad601383610c70565b91506109b882610d36565b602082019050919050565b60006109d0600a83610c70565b91506109db82610d5f565b602082019050919050565b60006109f3600883610c70565b91506109fe82610d88565b602082019050919050565b6000610a16600983610c70565b9150610a2182610db1565b602082019050919050565b6000610a39600983610c70565b9150610a4482610dda565b602082019050919050565b6000610a5c600983610c70565b9150610a6782610e03565b602082019050919050565b6000610a7f600c83610c70565b9150610a8a82610e2c565b602082019050919050565b610a9e81610cdc565b82525050565b6000610ab0828461097a565b60208201915081905092915050565b600061012082019050610ad5600083018c61095c565b610ae2602083018b61095c565b610aef604083018a61095c565b610afc6060830189610a95565b610b09608083018861096b565b610b1660a0830187610a95565b610b2360c0830186610a95565b610b3060e0830185610a95565b610b3e610100830184610991565b9a9950505050505050505050565b6000604082019050610b61600083018561095c565b610b6e6020830184610a95565b9392505050565b60006020820190508181036000830152610b8e816109a0565b9050919050565b60006020820190508181036000830152610bae816109c3565b9050919050565b60006020820190508181036000830152610bce816109e6565b9050919050565b60006020820190508181036000830152610bee81610a09565b9050919050565b60006020820190508181036000830152610c0e81610a2c565b9050919050565b60006020820190508181036000830152610c2e81610a4f565b9050919050565b60006020820190508181036000830152610c4e81610a72565b9050919050565b6000602082019050610c6a6000830184610a95565b92915050565b600082825260208201905092915050565b6000610c8c82610cbc565b9050919050565b60008115159050919050565b6000819050919050565b6000819050610cb782610e55565b919050565b600073ffffffffffffffffffffffffffffffffffffffff82169050919050565b6000819050919050565b6000610cf182610ca9565b9050919050565b6000819050919050565b7f4e487b7100000000000000000000000000000000000000000000000000000000600052602160045260246000fd5b600080fd5b7f546f6f206561726c7920746f2063616e63656c00000000000000000000000000600082015250565b7f4e6f742061637469766500000000000000000000000000000000000000000000600082015250565b7f546f6f206c617465000000000000000000000000000000000000000000000000600082015250565b7f546f6f206561726c790000000000000000000000000000000000000000000000600082015250565b7f4e6f742074616b65720000000000000000000000000000000000000000000000600082015250565b7f4e6f74206d616b65720000000000000000000000000000000000000000000000600082015250565b7f57726f6e67207365637265740000000000000000000000000000000000000000600082015250565b60038110610e6657610e65610d02565b5b50565b610e7281610c93565b8114610e7d57600080fd5b50565b610e8981610c9f565b8114610e9457600080fd5b5056fea26474726f6e58221220c907b42acf678c98278f6c5b3fad5b31dbb05e6b63fcce317c494a1347ded64f64736f6c63430008060033",
  "source": "// SPDX-License-Identifier: MIT\npragma solidity >=0.4.22 <0.9.0;\n\ninterface ITRC20 {\n    function transfer(address to, uint256 amount) external returns (bool);\n    function transferFrom(address from, address to, uint256 amount) external returns (bool);\n    function balanceOf(address account) external view returns (uint256);\n}\n\n/**\n * @title TronEscrowDebug\n * @dev Debug version of TronEscrowSimplified with better error reporting\n */\ncontract TronEscrowDebug {\n    \n    // Escrow states for clarity\n    enum EscrowState { ACTIVE, WITHDRAWN, CANCELLED }\n    \n    // Escrow data structure\n    struct EscrowData {\n        address maker;           // Who locked the funds\n        address taker;           // Who can unlock with secret\n        address token;           // TRC-20 token address\n        uint256 amount;          // Amount locked\n        bytes32 hashlock;        // keccak256(secret)\n        uint256 withdrawStart;   // When withdrawal becomes possible\n        uint256 cancelStart;     // When cancellation becomes possible\n        uint256 safetyDeposit;   // TRX safety deposit\n        EscrowState state;       // Current state\n    }\n    \n    // Storage\n    EscrowData public escrow;\n    \n    // Constants\n    uint256 public constant MINIMUM_SAFETY_DEPOSIT = 1000000; // 1 TRX in sun units\n    \n    // Events\n    event EscrowCreated(\n        address indexed maker,\n        address indexed taker,\n        address indexed token,\n        uint256 amount,\n        bytes32 hashlock\n    );\n    \n    event DebugInfo(string message, uint256 value);\n    \n    /**\n     * @dev Constructor creates and initializes the escrow\n     */\n    constructor(\n        address _taker,\n        address _token,\n        uint256 _amount,\n        bytes32 _hashlock,\n        uint256 _withdrawDelay,\n        uint256 _cancelDelay\n    ) payable {\n        // Debug: Log the received value\n        emit DebugInfo(\"Received msg.value\", msg.value);\n        emit DebugInfo(\"Required minimum\", MINIMUM_SAFETY_DEPOSIT);\n        \n        // Basic validation with clear error messages\n        require(_taker != address(0), \"Invalid taker\");\n        require(_token != address(0), \"Invalid token\");\n        require(_amount > 0, \"Invalid amount\");\n        require(_hashlock != bytes32(0), \"Invalid hashlock\");\n        require(_cancelDelay > _withdrawDelay, \"Invalid delays\");\n        \n        // This is the failing check - let's be very explicit\n        if (msg.value < MINIMUM_SAFETY_DEPOSIT) {\n            emit DebugInfo(\"FAILED: msg.value\", msg.value);\n            emit DebugInfo(\"FAILED: required\", MINIMUM_SAFETY_DEPOSIT);\n            revert(\"Insufficient safety deposit - debug version\");\n        }\n        \n        emit DebugInfo(\"Safety deposit OK\", msg.value);\n        \n        // Initialize escrow data\n        escrow = EscrowData({\n            maker: msg.sender,\n            taker: _taker,\n            token: _token,\n            amount: _amount,\n            hashlock: _hashlock,\n            withdrawStart: block.timestamp + _withdrawDelay,\n            cancelStart: block.timestamp + _cancelDelay,\n            safetyDeposit: msg.value,\n            state: EscrowState.ACTIVE\n        });\n        \n        emit DebugInfo(\"Before token transfer\", 0);\n        \n        // Transfer tokens from maker to this contract\n        bool success = ITRC20(_token).transferFrom(msg.sender, address(this), _amount);\n        require(success, \"Token transfer failed\");\n        \n        emit DebugInfo(\"After token transfer\", 1);\n        \n        emit EscrowCreated(\n            msg.sender,\n            _taker,\n            _token,\n            _amount,\n            _hashlock\n        );\n        \n        emit DebugInfo(\"Constructor completed\", block.timestamp);\n    }\n    \n    /**\n     * @dev Simple withdraw function for testing\n     */\n    function withdraw(bytes32 secret) external {\n        require(escrow.state == EscrowState.ACTIVE, \"Not active\");\n        require(msg.sender == escrow.taker, \"Not taker\");\n        require(block.timestamp >= escrow.withdrawStart, \"Too early\");\n        require(block.timestamp < escrow.cancelStart, \"Too late\");\n        require(keccak256(abi.encodePacked(secret)) == escrow.hashlock, \"Wrong secret\");\n        \n        escrow.state = EscrowState.WITHDRAWN;\n        \n        // Transfer tokens to taker\n        ITRC20(escrow.token).transfer(escrow.taker, escrow.amount);\n        \n        // Return safety deposit to maker\n        payable(escrow.maker).transfer(escrow.safetyDeposit);\n    }\n    \n    /**\n     * @dev Cancel function\n     */\n    function cancel() external {\n        require(escrow.state == EscrowState.ACTIVE, \"Not active\");\n        require(msg.sender == escrow.maker, \"Not maker\");\n        require(block.timestamp >= escrow.cancelStart, \"Too early to cancel\");\n        \n        escrow.state = EscrowState.CANCELLED;\n        \n        // Return tokens to maker\n        ITRC20(escrow.token).transfer(escrow.maker, escrow.amount);\n        \n        // Return safety deposit to maker\n        payable(escrow.maker).transfer(escrow.safetyDeposit);\n    }\n    \n    // View functions for debugging\n    function getEscrowInfo() external view returns (\n        address maker,\n        address taker,\n        address token,\n        uint256 amount,\n        bytes32 hashlock,\n        uint256 withdrawStart,\n        uint256 cancelStart,\n        uint256 safetyDeposit,\n        EscrowState state\n    ) {\n        return (\n            escrow.maker,\n            escrow.taker,\n            escrow.token,\n            escrow.amount,\n            escrow.hashlock,\n            escrow.withdrawStart,\n            escrow.cancelStart,\n            escrow.safetyDeposit,\n            escrow.state\n        );\n    }\n}\n",
  "sourcePath": "/home/ubu24/1inch/tron/contracts/TronEscrowDebug.sol",
  "compiler": {
    "name": "solc",
    "version": "0.8.6+commit.0e36fba0.mod.Emscripten.clang"
  },
  "schemaVersion": "2.0.1",
  "updatedAt": "2025-07-27T15:20:33.618Z"
}