{
  "contractName": "TronEscrowLite",
  "abi": [
    {
      "inputs": [
        {
          "internalType": "address",
          "name": "_taker",
          "type": "address"
        },
        {
          "internalType": "address",
          "name": "_token",
          "type": "address"
        },
        {
          "internalType": "uint256",
          "name": "_amount",
          "type": "uint256"
        },
        {
          "internalType": "bytes32",
          "name": "_hashlock",
          "type": "bytes32"
        },
        {
          "internalType": "uint256",
          "name": "_withdrawDelay",
          "type": "uint256"
        },
        {
          "internalType": "uint256",
          "name": "_cancelDelay",
          "type": "uint256"
        }
      ],
      "stateMutability": "payable",
      "type": "constructor"
    },
    {
      "anonymous": false,
      "inputs": [],
      "name": "Cancelled",
      "type": "event"
    },
    {
      "anonymous": false,
      "inputs": [
        {
          "indexed": false,
          "internalType": "address",
          "name": "maker",
          "type": "address"
        },
        {
          "indexed": false,
          "internalType": "address",
          "name": "taker",
          "type": "address"
        }
      ],
      "name": "Created",
      "type": "event"
    },
    {
      "anonymous": false,
      "inputs": [
        {
          "indexed": false,
          "internalType": "bytes32",
          "name": "secret",
          "type": "bytes32"
        }
      ],
      "name": "Withdrawn",
      "type": "event"
    },
    {
      "inputs": [],
      "name": "amount",
      "outputs": [
        {
          "internalType": "uint256",
          "name": "",
          "type": "uint256"
        }
      ],
      "stateMutability": "view",
      "type": "function"
    },
    {
      "inputs": [],
      "name": "cancel",
      "outputs": [],
      "stateMutability": "nonpayable",
      "type": "function"
    },
    {
      "inputs": [],
      "name": "cancelStart",
      "outputs": [
        {
          "internalType": "uint256",
          "name": "",
          "type": "uint256"
        }
      ],
      "stateMutability": "view",
      "type": "function"
    },
    {
      "inputs": [],
      "name": "cancelled",
      "outputs": [
        {
          "internalType": "bool",
          "name": "",
          "type": "bool"
        }
      ],
      "stateMutability": "view",
      "type": "function"
    },
    {
      "inputs": [],
      "name": "hashlock",
      "outputs": [
        {
          "internalType": "bytes32",
          "name": "",
          "type": "bytes32"
        }
      ],
      "stateMutability": "view",
      "type": "function"
    },
    {
      "inputs": [],
      "name": "maker",
      "outputs": [
        {
          "internalType": "address",
          "name": "",
          "type": "address"
        }
      ],
      "stateMutability": "view",
      "type": "function"
    },
    {
      "inputs": [],
      "name": "safetyDeposit",
      "outputs": [
        {
          "internalType": "uint256",
          "name": "",
          "type": "uint256"
        }
      ],
      "stateMutability": "view",
      "type": "function"
    },
    {
      "inputs": [],
      "name": "taker",
      "outputs": [
        {
          "internalType": "address",
          "name": "",
          "type": "address"
        }
      ],
      "stateMutability": "view",
      "type": "function"
    },
    {
      "inputs": [],
      "name": "token",
      "outputs": [
        {
          "internalType": "address",
          "name": "",
          "type": "address"
        }
      ],
      "stateMutability": "view",
      "type": "function"
    },
    {
      "inputs": [
        {
          "internalType": "bytes32",
          "name": "secret",
          "type": "bytes32"
        }
      ],
      "name": "withdraw",
      "outputs": [],
      "stateMutability": "nonpayable",
      "type": "function"
    },
    {
      "inputs": [],
      "name": "withdrawStart",
      "outputs": [
        {
          "internalType": "uint256",
          "name": "",
          "type": "uint256"
        }
      ],
      "stateMutability": "view",
      "type": "function"
    },
    {
      "inputs": [],
      "name": "withdrawn",
      "outputs": [
        {
          "internalType": "bool",
          "name": "",
          "type": "bool"
        }
      ],
      "stateMutability": "view",
      "type": "function"
    }
  ],
  "bytecode": "0x6080604052604051620015073803806200150783398181016040528101906200002991906200033e565b620f424034101562000072576040517f08c379a00000000000000000000000000000000000000000000000000000000081526004016200006990620004e6565b60405180910390fd5b818111620000b7576040517f08c379a0000000000000000000000000000000000000000000000000000000008152600401620000ae9062000508565b60405180910390fd5b336000806101000a81548173ffffffffffffffffffffffffffffffffffffffff021916908373ffffffffffffffffffffffffffffffffffffffff16021790555085600160006101000a81548173ffffffffffffffffffffffffffffffffffffffff021916908373ffffffffffffffffffffffffffffffffffffffff16021790555084600260006101000a81548173ffffffffffffffffffffffffffffffffffffffff021916908373ffffffffffffffffffffffffffffffffffffffff160217905550836003819055508260048190555081426200019591906200053b565b6005819055508042620001a991906200053b565b600681905550346007819055508473ffffffffffffffffffffffffffffffffffffffff166323b872dd3330876040518463ffffffff1660e01b8152600401620001f593929190620004a9565b602060405180830381600087803b1580156200021057600080fd5b505af115801562000225573d6000803e3d6000fd5b505050506040513d601f19601f820116820180604052508101906200024b9190620003da565b507f587ece4cd19692c5be1a4184503d607d45542d2aca0698c0068f52e09ccb541c60008054906101000a900473ffffffffffffffffffffffffffffffffffffffff16600160009054906101000a900473ffffffffffffffffffffffffffffffffffffffff16604051620002c19291906200047c565b60405180910390a1505050505050620006fb565b600081519050620002e68162000693565b620002f18162000598565b905092915050565b6000815190506200030a81620006ad565b92915050565b6000815190506200032181620006c7565b92915050565b6000815190506200033881620006e1565b92915050565b60008060008060008060c087890312156200035e576200035d6200063c565b5b60006200036e89828a01620002d5565b96505060206200038189828a01620002d5565b95505060406200039489828a0162000327565b9450506060620003a789828a0162000310565b9350506080620003ba89828a0162000327565b92505060a0620003cd89828a0162000327565b9150509295509295509295565b600060208284031215620003f357620003f26200063c565b5b60006200040384828501620002f9565b91505092915050565b620004178162000598565b82525050565b60006200042c6013836200052a565b9150620004398262000641565b602082019050919050565b600062000453600a836200052a565b915062000460826200066a565b602082019050919050565b620004768162000603565b82525050565b60006040820190506200049360008301856200040c565b620004a260208301846200040c565b9392505050565b6000606082019050620004c060008301866200040c565b620004cf60208301856200040c565b620004de60408301846200046b565b949350505050565b6000602082019050818103600083015262000501816200041d565b9050919050565b60006020820190508181036000830152620005238162000444565b9050919050565b600082825260208201905092915050565b6000620005488262000603565b9150620005558362000603565b9250827fffffffffffffffffffffffffffffffffffffffffffffffffffffffffffffffff038211156200058d576200058c6200060d565b5b828201905092915050565b6000620005a582620005c2565b9050919050565b60008115159050919050565b6000819050919050565b600073ffffffffffffffffffffffffffffffffffffffff82169050919050565b600074ffffffffffffffffffffffffffffffffffffffffff82169050919050565b6000819050919050565b7f4e487b7100000000000000000000000000000000000000000000000000000000600052601160045260246000fd5b600080fd5b7f4e65656420312b20545258206465706f73697400000000000000000000000000600082015250565b7f4261642074696d696e6700000000000000000000000000000000000000000000600082015250565b6200069e81620005e2565b8114620006aa57600080fd5b50565b620006b881620005ac565b8114620006c457600080fd5b50565b620006d281620005b8565b8114620006de57600080fd5b50565b620006ec8162000603565b8114620006f857600080fd5b50565b610dfc806200070b6000396000f3fe608060405234801561001057600080fd5b50d3801561001d57600080fd5b50d2801561002a57600080fd5b50600436106100ce5760003560e01c80639a82a09a1161008b5780639a82a09a14610185578063a782086e146101a3578063aa8c217c146101c1578063c80ec522146101df578063ea8a1af0146101fd578063fc0c546a14610207576100ce565b80631732c69f146100d357806335361909146100f157806350655d8c1461010f578063564345381461012d578063782b36021461014b5780638e19899e14610169575b600080fd5b6100db610225565b6040516100e89190610c15565b60405180910390f35b6100f961022b565b6040516101069190610c15565b60405180910390f35b610117610231565b6040516101249190610adb565b60405180910390f35b610135610255565b6040516101429190610c15565b60405180910390f35b61015361025b565b6040516101609190610adb565b60405180910390f35b610183600480360381019061017e919061096e565b610281565b005b61018d6105ff565b60405161019a9190610b1f565b60405180910390f35b6101ab610612565b6040516101b89190610b3a565b60405180910390f35b6101c9610618565b6040516101d69190610c15565b60405180910390f35b6101e761061e565b6040516101f49190610b1f565b60405180910390f35b610205610631565b005b61020f6108f1565b60405161021c9190610adb565b60405180910390f35b60075481565b60055481565b60008054906101000a900473ffffffffffffffffffffffffffffffffffffffff1681565b60065481565b600160009054906101000a900473ffffffffffffffffffffffffffffffffffffffff1681565b600860009054906101000a900460ff161580156102ab5750600860019054906101000a900460ff16155b6102ea576040517f08c379a00000000000000000000000000000000000000000000000000000000081526004016102e190610b55565b60405180910390fd5b600160009054906101000a900473ffffffffffffffffffffffffffffffffffffffff1673ffffffffffffffffffffffffffffffffffffffff163373ffffffffffffffffffffffffffffffffffffffff161461037a576040517f08c379a000000000000000000000000000000000000000000000000000000000815260040161037190610bb5565b60405180910390fd5b6005544210156103bf576040517f08c379a00000000000000000000000000000000000000000000000000000000081526004016103b690610b95565b60405180910390fd5b6006544210610403576040517f08c379a00000000000000000000000000000000000000000000000000000000081526004016103fa90610b75565b60405180910390fd5b600454816040516020016104179190610ac0565b604051602081830303815290604052805190602001201461046d576040517f08c379a000000000000000000000000000000000000000000000000000000000815260040161046490610bf5565b60405180910390fd5b6001600860006101000a81548160ff021916908315150217905550600260009054906101000a900473ffffffffffffffffffffffffffffffffffffffff1673ffffffffffffffffffffffffffffffffffffffff1663a9059cbb600160009054906101000a900473ffffffffffffffffffffffffffffffffffffffff166003546040518363ffffffff1660e01b8152600401610509929190610af6565b602060405180830381600087803b15801561052357600080fd5b505af1158015610537573d6000803e3d6000fd5b505050506040513d601f19601f8201168201806040525081019061055b9190610941565b5060008054906101000a900473ffffffffffffffffffffffffffffffffffffffff1673ffffffffffffffffffffffffffffffffffffffff166108fc6007549081150290604051600060405180830381858888f193505050501580156105c4573d6000803e3d6000fd5b507f44654674e66e9e53d34afdf3e9513fb94b4c8b946e980d6958ef4e6a37a153e3816040516105f49190610b3a565b60405180910390a150565b600860019054906101000a900460ff1681565b60045481565b60035481565b600860009054906101000a900460ff1681565b600860009054906101000a900460ff1615801561065b5750600860019054906101000a900460ff16155b61069a576040517f08c379a000000000000000000000000000000000000000000000000000000000815260040161069190610b55565b60405180910390fd5b60008054906101000a900473ffffffffffffffffffffffffffffffffffffffff1673ffffffffffffffffffffffffffffffffffffffff163373ffffffffffffffffffffffffffffffffffffffff1614610728576040517f08c379a000000000000000000000000000000000000000000000000000000000815260040161071f90610bd5565b60405180910390fd5b60065442101561076d576040517f08c379a000000000000000000000000000000000000000000000000000000000815260040161076490610b95565b60405180910390fd5b6001600860016101000a81548160ff021916908315150217905550600260009054906101000a900473ffffffffffffffffffffffffffffffffffffffff1673ffffffffffffffffffffffffffffffffffffffff1663a9059cbb60008054906101000a900473ffffffffffffffffffffffffffffffffffffffff166003546040518363ffffffff1660e01b8152600401610807929190610af6565b602060405180830381600087803b15801561082157600080fd5b505af1158015610835573d6000803e3d6000fd5b505050506040513d601f19601f820116820180604052508101906108599190610941565b5060008054906101000a900473ffffffffffffffffffffffffffffffffffffffff1673ffffffffffffffffffffffffffffffffffffffff166108fc6007549081150290604051600060405180830381858888f193505050501580156108c2573d6000803e3d6000fd5b507f63b958841f79ab97cb5456da181454b9932c0e15a3b17f1cbd27e2a8bc61043760405160405180910390a1565b600260009054906101000a900473ffffffffffffffffffffffffffffffffffffffff1681565b60008151905061092681610d98565b92915050565b60008135905061093b81610daf565b92915050565b60006020828403121561095757610956610c9d565b5b600061096584828501610917565b91505092915050565b60006020828403121561098457610983610c9d565b5b60006109928482850161092c565b91505092915050565b6109a481610c41565b82525050565b6109b381610c53565b82525050565b6109c281610c5f565b82525050565b6109d96109d482610c5f565b610c93565b82525050565b60006109ec600483610c30565b91506109f782610ca2565b602082019050919050565b6000610a0f600883610c30565b9150610a1a82610ccb565b602082019050919050565b6000610a32600983610c30565b9150610a3d82610cf4565b602082019050919050565b6000610a55600983610c30565b9150610a6082610d1d565b602082019050919050565b6000610a78600983610c30565b9150610a8382610d46565b602082019050919050565b6000610a9b600c83610c30565b9150610aa682610d6f565b602082019050919050565b610aba81610c89565b82525050565b6000610acc82846109c8565b60208201915081905092915050565b6000602082019050610af0600083018461099b565b92915050565b6000604082019050610b0b600083018561099b565b610b186020830184610ab1565b9392505050565b6000602082019050610b3460008301846109aa565b92915050565b6000602082019050610b4f60008301846109b9565b92915050565b60006020820190508181036000830152610b6e816109df565b9050919050565b60006020820190508181036000830152610b8e81610a02565b9050919050565b60006020820190508181036000830152610bae81610a25565b9050919050565b60006020820190508181036000830152610bce81610a48565b9050919050565b60006020820190508181036000830152610bee81610a6b565b9050919050565b60006020820190508181036000830152610c0e81610a8e565b9050919050565b6000602082019050610c2a6000830184610ab1565b92915050565b600082825260208201905092915050565b6000610c4c82610c69565b9050919050565b60008115159050919050565b6000819050919050565b600073ffffffffffffffffffffffffffffffffffffffff82169050919050565b6000819050919050565b6000819050919050565b600080fd5b7f446f6e6500000000000000000000000000000000000000000000000000000000600082015250565b7f546f6f206c617465000000000000000000000000000000000000000000000000600082015250565b7f546f6f206561726c790000000000000000000000000000000000000000000000600082015250565b7f4e6f742074616b65720000000000000000000000000000000000000000000000600082015250565b7f4e6f74206d616b65720000000000000000000000000000000000000000000000600082015250565b7f57726f6e67207365637265740000000000000000000000000000000000000000600082015250565b610da181610c53565b8114610dac57600080fd5b50565b610db881610c5f565b8114610dc357600080fd5b5056fea26474726f6e58221220b7aeb2f68b3df99419842dc9352c7b23b44588a22d997caeb01e6f030db02b4664736f6c63430008060033",
  "source": "// SPDX-License-Identifier: MIT\npragma solidity >=0.4.22 <0.9.0;\n\ninterface ITRC20 {\n    function transfer(address to, uint256 amount) external returns (bool);\n    function transferFrom(address from, address to, uint256 amount) external returns (bool);\n}\n\n/**\n * @title TronEscrowLite\n * @dev Ultra-lightweight HTLC escrow for minimal energy usage\n */\ncontract TronEscrowLite {\n    \n    address public maker;\n    address public taker;\n    address public token;\n    uint256 public amount;\n    bytes32 public hashlock;\n    uint256 public withdrawStart;\n    uint256 public cancelStart;\n    uint256 public safetyDeposit;\n    bool public withdrawn;\n    bool public cancelled;\n    \n    uint256 constant MIN_DEPOSIT = 1000000; // 1 TRX\n    \n    event Created(address maker, address taker);\n    event Withdrawn(bytes32 secret);\n    event Cancelled();\n    \n    constructor(\n        address _taker,\n        address _token,\n        uint256 _amount,\n        bytes32 _hashlock,\n        uint256 _withdrawDelay,\n        uint256 _cancelDelay\n    ) payable {\n        require(msg.value >= MIN_DEPOSIT, \"Need 1+ TRX deposit\");\n        require(_cancelDelay > _withdrawDelay, \"Bad timing\");\n        \n        maker = msg.sender;\n        taker = _taker;\n        token = _token;\n        amount = _amount;\n        hashlock = _hashlock;\n        withdrawStart = block.timestamp + _withdrawDelay;\n        cancelStart = block.timestamp + _cancelDelay;\n        safetyDeposit = msg.value;\n        \n        // Transfer tokens to this contract\n        ITRC20(_token).transferFrom(msg.sender, address(this), _amount);\n        \n        emit Created(maker, taker);\n    }\n    \n    function withdraw(bytes32 secret) external {\n        require(!withdrawn && !cancelled, \"Done\");\n        require(msg.sender == taker, \"Not taker\");\n        require(block.timestamp >= withdrawStart, \"Too early\");\n        require(block.timestamp < cancelStart, \"Too late\");\n        require(keccak256(abi.encodePacked(secret)) == hashlock, \"Wrong secret\");\n        \n        withdrawn = true;\n        \n        ITRC20(token).transfer(taker, amount);\n        payable(maker).transfer(safetyDeposit);\n        \n        emit Withdrawn(secret);\n    }\n    \n    function cancel() external {\n        require(!withdrawn && !cancelled, \"Done\");\n        require(msg.sender == maker, \"Not maker\");\n        require(block.timestamp >= cancelStart, \"Too early\");\n        \n        cancelled = true;\n        \n        ITRC20(token).transfer(maker, amount);\n        payable(maker).transfer(safetyDeposit);\n        \n        emit Cancelled();\n    }\n}\n",
  "sourcePath": "/home/ubu24/1inch/tron/contracts/TronEscrowLite.sol",
  "compiler": {
    "name": "solc",
    "version": "0.8.6+commit.0e36fba0.mod.Emscripten.clang"
  },
  "schemaVersion": "2.0.1",
  "updatedAt": "2025-07-27T15:55:12.863Z"
}