{
  "contractName": "TronEscrowSimplified",
  "abi": [
    {
      "inputs": [
        {
          "internalType": "address",
          "name": "_taker",
          "type": "address"
        },
        {
          "internalType": "address",
          "name": "_token",
          "type": "address"
        },
        {
          "internalType": "uint256",
          "name": "_amount",
          "type": "uint256"
        },
        {
          "internalType": "bytes32",
          "name": "_hashlock",
          "type": "bytes32"
        },
        {
          "internalType": "uint256",
          "name": "_withdrawDelay",
          "type": "uint256"
        },
        {
          "internalType": "uint256",
          "name": "_cancelDelay",
          "type": "uint256"
        }
      ],
      "stateMutability": "payable",
      "type": "constructor"
    },
    {
      "inputs": [],
      "name": "InsufficientSafetyDeposit",
      "type": "error"
    },
    {
      "inputs": [],
      "name": "InvalidAmount",
      "type": "error"
    },
    {
      "inputs": [],
      "name": "InvalidCaller",
      "type": "error"
    },
    {
      "inputs": [],
      "name": "InvalidSecret",
      "type": "error"
    },
    {
      "inputs": [],
      "name": "InvalidState",
      "type": "error"
    },
    {
      "inputs": [],
      "name": "InvalidTime",
      "type": "error"
    },
    {
      "inputs": [],
      "name": "TokenTransferFailed",
      "type": "error"
    },
    {
      "anonymous": false,
      "inputs": [
        {
          "indexed": true,
          "internalType": "address",
          "name": "maker",
          "type": "address"
        }
      ],
      "name": "EscrowCancelled",
      "type": "event"
    },
    {
      "anonymous": false,
      "inputs": [
        {
          "indexed": true,
          "internalType": "address",
          "name": "maker",
          "type": "address"
        },
        {
          "indexed": true,
          "internalType": "address",
          "name": "taker",
          "type": "address"
        },
        {
          "indexed": true,
          "internalType": "address",
          "name": "token",
          "type": "address"
        },
        {
          "indexed": false,
          "internalType": "uint256",
          "name": "amount",
          "type": "uint256"
        },
        {
          "indexed": false,
          "internalType": "bytes32",
          "name": "hashlock",
          "type": "bytes32"
        },
        {
          "indexed": false,
          "internalType": "uint256",
          "name": "withdrawStart",
          "type": "uint256"
        },
        {
          "indexed": false,
          "internalType": "uint256",
          "name": "cancelStart",
          "type": "uint256"
        }
      ],
      "name": "EscrowCreated",
      "type": "event"
    },
    {
      "anonymous": false,
      "inputs": [
        {
          "indexed": true,
          "internalType": "address",
          "name": "taker",
          "type": "address"
        },
        {
          "indexed": false,
          "internalType": "bytes32",
          "name": "secret",
          "type": "bytes32"
        }
      ],
      "name": "EscrowWithdrawal",
      "type": "event"
    },
    {
      "inputs": [],
      "name": "MINIMUM_SAFETY_DEPOSIT",
      "outputs": [
        {
          "internalType": "uint256",
          "name": "",
          "type": "uint256"
        }
      ],
      "stateMutability": "view",
      "type": "function"
    },
    {
      "inputs": [],
      "name": "canCancel",
      "outputs": [
        {
          "internalType": "bool",
          "name": "",
          "type": "bool"
        }
      ],
      "stateMutability": "view",
      "type": "function"
    },
    {
      "inputs": [],
      "name": "canWithdraw",
      "outputs": [
        {
          "internalType": "bool",
          "name": "",
          "type": "bool"
        }
      ],
      "stateMutability": "view",
      "type": "function"
    },
    {
      "inputs": [],
      "name": "cancel",
      "outputs": [],
      "stateMutability": "nonpayable",
      "type": "function"
    },
    {
      "inputs": [],
      "name": "escrow",
      "outputs": [
        {
          "internalType": "address",
          "name": "maker",
          "type": "address"
        },
        {
          "internalType": "address",
          "name": "taker",
          "type": "address"
        },
        {
          "internalType": "address",
          "name": "token",
          "type": "address"
        },
        {
          "internalType": "uint256",
          "name": "amount",
          "type": "uint256"
        },
        {
          "internalType": "bytes32",
          "name": "hashlock",
          "type": "bytes32"
        },
        {
          "internalType": "uint256",
          "name": "withdrawStart",
          "type": "uint256"
        },
        {
          "internalType": "uint256",
          "name": "cancelStart",
          "type": "uint256"
        },
        {
          "internalType": "uint256",
          "name": "safetyDeposit",
          "type": "uint256"
        },
        {
          "internalType": "enum TronEscrowSimplified.EscrowState",
          "name": "state",
          "type": "uint8"
        }
      ],
      "stateMutability": "view",
      "type": "function"
    },
    {
      "inputs": [],
      "name": "getEscrowDetails",
      "outputs": [
        {
          "internalType": "address",
          "name": "maker",
          "type": "address"
        },
        {
          "internalType": "address",
          "name": "taker",
          "type": "address"
        },
        {
          "internalType": "address",
          "name": "token",
          "type": "address"
        },
        {
          "internalType": "uint256",
          "name": "amount",
          "type": "uint256"
        },
        {
          "internalType": "bytes32",
          "name": "hashlock",
          "type": "bytes32"
        },
        {
          "internalType": "uint256",
          "name": "withdrawStart",
          "type": "uint256"
        },
        {
          "internalType": "uint256",
          "name": "cancelStart",
          "type": "uint256"
        },
        {
          "internalType": "uint256",
          "name": "safetyDeposit",
          "type": "uint256"
        },
        {
          "internalType": "enum TronEscrowSimplified.EscrowState",
          "name": "state",
          "type": "uint8"
        }
      ],
      "stateMutability": "view",
      "type": "function"
    },
    {
      "inputs": [
        {
          "internalType": "bytes32",
          "name": "secret",
          "type": "bytes32"
        }
      ],
      "name": "withdraw",
      "outputs": [],
      "stateMutability": "nonpayable",
      "type": "function"
    }
  ],
  "bytecode": "0x608060405260405162001b9c38038062001b9c8339818101604052810190620000299190620005f7565b600073ffffffffffffffffffffffffffffffffffffffff168673ffffffffffffffffffffffffffffffffffffffff1614156200009c576040517f08c379a000000000000000000000000000000000000000000000000000000000815260040162000093906200088a565b60405180910390fd5b600073ffffffffffffffffffffffffffffffffffffffff168573ffffffffffffffffffffffffffffffffffffffff1614156200010f576040517f08c379a0000000000000000000000000000000000000000000000000000000008152600401620001069062000912565b60405180910390fd5b6000841162000155576040517f08c379a00000000000000000000000000000000000000000000000000000000081526004016200014c9062000846565b60405180910390fd5b6000801b8314156200019e576040517f08c379a00000000000000000000000000000000000000000000000000000000081526004016200019590620008f0565b60405180910390fd5b818111620001e3576040517f08c379a0000000000000000000000000000000000000000000000000000000008152600401620001da90620008ac565b60405180910390fd5b620f42403410156200022c576040517f08c379a0000000000000000000000000000000000000000000000000000000008152600401620002239062000868565b60405180910390fd5b6040518061012001604052803373ffffffffffffffffffffffffffffffffffffffff1681526020018773ffffffffffffffffffffffffffffffffffffffff1681526020018673ffffffffffffffffffffffffffffffffffffffff1681526020018581526020018481526020018342620002a6919062000992565b81526020018242620002b9919062000992565b815260200134815260200160006002811115620002db57620002da62000a93565b5b8152506000808201518160000160006101000a81548173ffffffffffffffffffffffffffffffffffffffff021916908373ffffffffffffffffffffffffffffffffffffffff16021790555060208201518160010160006101000a81548173ffffffffffffffffffffffffffffffffffffffff021916908373ffffffffffffffffffffffffffffffffffffffff16021790555060408201518160020160006101000a81548173ffffffffffffffffffffffffffffffffffffffff021916908373ffffffffffffffffffffffffffffffffffffffff160217905550606082015181600301556080820151816004015560a0820151816005015560c0820151816006015560e082015181600701556101008201518160080160006101000a81548160ff0219169083600281111562000415576200041462000a93565b5b02179055509050508473ffffffffffffffffffffffffffffffffffffffff166323b872dd3330876040518463ffffffff1660e01b81526004016200045c9392919062000809565b602060405180830381600087803b1580156200047757600080fd5b505af11580156200048c573d6000803e3d6000fd5b505050506040513d601f19601f82011682018060405250810190620004b2919062000693565b620004f4576040517f08c379a0000000000000000000000000000000000000000000000000000000008152600401620004eb90620008ce565b60405180910390fd5b8473ffffffffffffffffffffffffffffffffffffffff168673ffffffffffffffffffffffffffffffffffffffff163373ffffffffffffffffffffffffffffffffffffffff167fae4c40114fa856d5a1fa1ff1bbb4ecbfc9f24751f80242e892188f50d3bb94ff87876000600501546000600601546040516200057a949392919062000934565b60405180910390a450505050505062000c74565b6000815190506200059f8162000c0c565b620005aa81620009ef565b905092915050565b600081519050620005c38162000c26565b92915050565b600081519050620005da8162000c40565b92915050565b600081519050620005f18162000c5a565b92915050565b60008060008060008060c0878903121562000617576200061662000ac2565b5b60006200062789828a016200058e565b96505060206200063a89828a016200058e565b95505060406200064d89828a01620005e0565b94505060606200066089828a01620005c9565b93505060806200067389828a01620005e0565b92505060a06200068689828a01620005e0565b9150509295509295509295565b600060208284031215620006ac57620006ab62000ac2565b5b6000620006bc84828501620005b2565b91505092915050565b620006d081620009ef565b82525050565b620006e18162000a0f565b82525050565b6000620006f660208362000981565b9150620007038262000ac7565b602082019050919050565b60006200071d601b8362000981565b91506200072a8262000af0565b602082019050919050565b60006200074460158362000981565b9150620007518262000b19565b602082019050919050565b60006200076b60298362000981565b9150620007788262000b42565b604082019050919050565b60006200079260158362000981565b91506200079f8262000b91565b602082019050919050565b6000620007b960108362000981565b9150620007c68262000bba565b602082019050919050565b6000620007e060158362000981565b9150620007ed8262000be3565b602082019050919050565b620008038162000a5a565b82525050565b6000606082019050620008206000830186620006c5565b6200082f6020830185620006c5565b6200083e6040830184620007f8565b949350505050565b600060208201905081810360008301526200086181620006e7565b9050919050565b6000602082019050818103600083015262000883816200070e565b9050919050565b60006020820190508181036000830152620008a58162000735565b9050919050565b60006020820190508181036000830152620008c7816200075c565b9050919050565b60006020820190508181036000830152620008e98162000783565b9050919050565b600060208201905081810360008301526200090b81620007aa565b9050919050565b600060208201905081810360008301526200092d81620007d1565b9050919050565b60006080820190506200094b6000830187620007f8565b6200095a6020830186620006d6565b620009696040830185620007f8565b620009786060830184620007f8565b95945050505050565b600082825260208201905092915050565b60006200099f8262000a5a565b9150620009ac8362000a5a565b9250827fffffffffffffffffffffffffffffffffffffffffffffffffffffffffffffffff03821115620009e457620009e362000a64565b5b828201905092915050565b6000620009fc8262000a19565b9050919050565b60008115159050919050565b6000819050919050565b600073ffffffffffffffffffffffffffffffffffffffff82169050919050565b600074ffffffffffffffffffffffffffffffffffffffffff82169050919050565b6000819050919050565b7f4e487b7100000000000000000000000000000000000000000000000000000000600052601160045260246000fd5b7f4e487b7100000000000000000000000000000000000000000000000000000000600052602160045260246000fd5b600080fd5b7f416d6f756e74206d7573742062652067726561746572207468616e207a65726f600082015250565b7f496e73756666696369656e7420736166657479206465706f7369740000000000600082015250565b7f496e76616c69642074616b657220616464726573730000000000000000000000600082015250565b7f43616e63656c2064656c6179206d75737420626520616674657220776974686460008201527f7261772064656c61790000000000000000000000000000000000000000000000602082015250565b7f546f6b656e207472616e73666572206661696c65640000000000000000000000600082015250565b7f496e76616c696420686173686c6f636b00000000000000000000000000000000600082015250565b7f496e76616c696420746f6b656e20616464726573730000000000000000000000600082015250565b62000c178162000a39565b811462000c2357600080fd5b50565b62000c318162000a03565b811462000c3d57600080fd5b50565b62000c4b8162000a0f565b811462000c5757600080fd5b50565b62000c658162000a5a565b811462000c7157600080fd5b50565b610f188062000c846000396000f3fe608060405234801561001057600080fd5b50d3801561001d57600080fd5b50d2801561002a57600080fd5b50600436106100975760003560e01c8063d0f3725f11610075578063d0f3725f146100f4578063e2fdcc1714610112578063ea8a1af014610138578063f56606601461014257610097565b80638e19899e1461009c578063b51459fe146100b8578063c1a82772146100d6575b600080fd5b6100b660048036038101906100b19190610b51565b610168565b005b6100c0610572565b6040516100cd9190610cf7565b60405180910390f35b6100de6105d3565b6040516100eb9190610d6d565b60405180910390f35b6100fc6105da565b6040516101099190610cf7565b60405180910390f35b61011a61062b565b60405161012f99989796959493929190610c41565b60405180910390f35b6101406106d4565b005b61014a610a2d565b60405161015f99989796959493929190610c41565b60405180910390f35b6000600281111561017c5761017b610e1a565b5b600060080160009054906101000a900460ff1660028111156101a1576101a0610e1a565b5b146101d8576040517fbaf3f0f700000000000000000000000000000000000000000000000000000000815260040160405180910390fd5b600060010160009054906101000a900473ffffffffffffffffffffffffffffffffffffffff1673ffffffffffffffffffffffffffffffffffffffff163373ffffffffffffffffffffffffffffffffffffffff1614610262576040517f48f5c3ed00000000000000000000000000000000000000000000000000000000815260040160405180910390fd5b6000600501544210156102a1576040517f6f7eac2600000000000000000000000000000000000000000000000000000000815260040160405180910390fd5b60006006015442106102df576040517f6f7eac2600000000000000000000000000000000000000000000000000000000815260040160405180910390fd5b600060040154816040516020016102f69190610c26565b6040516020818303038152906040528051906020012014610343576040517fabab6bd700000000000000000000000000000000000000000000000000000000815260040160405180910390fd5b6001600060080160006101000a81548160ff0219169083600281111561036c5761036b610e1a565b5b0217905550600060020160009054906101000a900473ffffffffffffffffffffffffffffffffffffffff1673ffffffffffffffffffffffffffffffffffffffff1663a9059cbb600060010160009054906101000a900473ffffffffffffffffffffffffffffffffffffffff166000600301546040518363ffffffff1660e01b81526004016103fb929190610cce565b602060405180830381600087803b15801561041557600080fd5b505af1158015610429573d6000803e3d6000fd5b505050506040513d601f19601f8201168201806040525081019061044d9190610b24565b61048c576040517f08c379a000000000000000000000000000000000000000000000000000000000815260040161048390610d2d565b60405180910390fd5b6000800160009054906101000a900473ffffffffffffffffffffffffffffffffffffffff1673ffffffffffffffffffffffffffffffffffffffff166108fc6000600701549081150290604051600060405180830381858888f193505050501580156104fb573d6000803e3d6000fd5b50600060010160009054906101000a900473ffffffffffffffffffffffffffffffffffffffff1673ffffffffffffffffffffffffffffffffffffffff167fefa939c5c1301064eb6411b89706ef9e202af534c17a37cfe9c152a9297931a9826040516105679190610d12565b60405180910390a250565b600080600281111561058757610586610e1a565b5b600060080160009054906101000a900460ff1660028111156105ac576105ab610e1a565b5b1480156105be57506000600501544210155b80156105ce575060006006015442105b905090565b620f424081565b60008060028111156105ef576105ee610e1a565b5b600060080160009054906101000a900460ff16600281111561061457610613610e1a565b5b14801561062657506000600601544210155b905090565b60008060000160009054906101000a900473ffffffffffffffffffffffffffffffffffffffff16908060010160009054906101000a900473ffffffffffffffffffffffffffffffffffffffff16908060020160009054906101000a900473ffffffffffffffffffffffffffffffffffffffff16908060030154908060040154908060050154908060060154908060070154908060080160009054906101000a900460ff16905089565b600060028111156106e8576106e7610e1a565b5b600060080160009054906101000a900460ff16600281111561070d5761070c610e1a565b5b14610744576040517fbaf3f0f700000000000000000000000000000000000000000000000000000000815260040160405180910390fd5b6000800160009054906101000a900473ffffffffffffffffffffffffffffffffffffffff1673ffffffffffffffffffffffffffffffffffffffff163373ffffffffffffffffffffffffffffffffffffffff16146107cd576040517f48f5c3ed00000000000000000000000000000000000000000000000000000000815260040160405180910390fd5b60006006015442101561080c576040517f6f7eac2600000000000000000000000000000000000000000000000000000000815260040160405180910390fd5b6002600060080160006101000a81548160ff0219169083600281111561083557610834610e1a565b5b0217905550600060020160009054906101000a900473ffffffffffffffffffffffffffffffffffffffff1673ffffffffffffffffffffffffffffffffffffffff1663a9059cbb6000800160009054906101000a900473ffffffffffffffffffffffffffffffffffffffff166000600301546040518363ffffffff1660e01b81526004016108c3929190610cce565b602060405180830381600087803b1580156108dd57600080fd5b505af11580156108f1573d6000803e3d6000fd5b505050506040513d601f19601f820116820180604052508101906109159190610b24565b610954576040517f08c379a000000000000000000000000000000000000000000000000000000000815260040161094b90610d4d565b60405180910390fd5b6000800160009054906101000a900473ffffffffffffffffffffffffffffffffffffffff1673ffffffffffffffffffffffffffffffffffffffff166108fc6000600701549081150290604051600060405180830381858888f193505050501580156109c3573d6000803e3d6000fd5b506000800160009054906101000a900473ffffffffffffffffffffffffffffffffffffffff1673ffffffffffffffffffffffffffffffffffffffff167fac2a38716bf0fa9fa1a52e859663398120e11fa721ea31fe0682199b9fd367e760405160405180910390a2565b60008060008060008060008060008060000160009054906101000a900473ffffffffffffffffffffffffffffffffffffffff16600060010160009054906101000a900473ffffffffffffffffffffffffffffffffffffffff16600060020160009054906101000a900473ffffffffffffffffffffffffffffffffffffffff16600060030154600060040154600060050154600060060154600060070154600060080160009054906101000a900460ff16985098509850985098509850985098509850909192939495969798565b600081519050610b0981610eb4565b92915050565b600081359050610b1e81610ecb565b92915050565b600060208284031215610b3a57610b39610e49565b5b6000610b4884828501610afa565b91505092915050565b600060208284031215610b6757610b66610e49565b5b6000610b7584828501610b0f565b91505092915050565b610b8781610d99565b82525050565b610b9681610dab565b82525050565b610ba581610db7565b82525050565b610bbc610bb782610db7565b610e10565b82525050565b610bcb81610dfe565b82525050565b6000610bde601e83610d88565b9150610be982610e4e565b602082019050919050565b6000610c01601e83610d88565b9150610c0c82610e77565b602082019050919050565b610c2081610df4565b82525050565b6000610c328284610bab565b60208201915081905092915050565b600061012082019050610c57600083018c610b7e565b610c64602083018b610b7e565b610c71604083018a610b7e565b610c7e6060830189610c17565b610c8b6080830188610b9c565b610c9860a0830187610c17565b610ca560c0830186610c17565b610cb260e0830185610c17565b610cc0610100830184610bc2565b9a9950505050505050505050565b6000604082019050610ce36000830185610b7e565b610cf06020830184610c17565b9392505050565b6000602082019050610d0c6000830184610b8d565b92915050565b6000602082019050610d276000830184610b9c565b92915050565b60006020820190508181036000830152610d4681610bd1565b9050919050565b60006020820190508181036000830152610d6681610bf4565b9050919050565b6000602082019050610d826000830184610c17565b92915050565b600082825260208201905092915050565b6000610da482610dd4565b9050919050565b60008115159050919050565b6000819050919050565b6000819050610dcf82610ea0565b919050565b600073ffffffffffffffffffffffffffffffffffffffff82169050919050565b6000819050919050565b6000610e0982610dc1565b9050919050565b6000819050919050565b7f4e487b7100000000000000000000000000000000000000000000000000000000600052602160045260246000fd5b600080fd5b7f546f6b656e207472616e7366657220746f2074616b6572206661696c65640000600082015250565b7f546f6b656e207472616e7366657220746f206d616b6572206661696c65640000600082015250565b60038110610eb157610eb0610e1a565b5b50565b610ebd81610dab565b8114610ec857600080fd5b50565b610ed481610db7565b8114610edf57600080fd5b5056fea26474726f6e58221220966e4354e63119d6ae74b94806b87421dac362618549f5a3b982c7b7b67cce9164736f6c63430008060033",
  "source": "// SPDX-License-Identifier: MIT\npragma solidity >=0.4.22 <0.9.0;\n\ninterface ITRC20 {\n    function transfer(address to, uint256 amount) external returns (bool);\n    function transferFrom(address from, address to, uint256 amount) external returns (bool);\n    function balanceOf(address account) external view returns (uint256);\n}\n\n/**\n * @title TronEscrowSimplified\n * @dev Simplified HTLC escrow contract for cross-chain atomic swaps\n * @notice Based on 1inch architecture but simplified for hackathon use\n */\ncontract TronEscrowSimplified {\n    \n    // Escrow states for clarity\n    enum EscrowState { ACTIVE, WITHDRAWN, CANCELLED }\n    \n    // Escrow data structure\n    struct EscrowData {\n        address maker;           // Who locked the funds\n        address taker;           // Who can unlock with secret\n        address token;           // TRC-20 token address\n        uint256 amount;          // Amount locked\n        bytes32 hashlock;        // keccak256(secret)\n        uint256 withdrawStart;   // When withdrawal becomes possible\n        uint256 cancelStart;     // When cancellation becomes possible\n        uint256 safetyDeposit;   // TRX safety deposit\n        EscrowState state;       // Current state\n    }\n    \n    // Storage\n    EscrowData public escrow;\n    \n    // Constants\n    uint256 public constant MINIMUM_SAFETY_DEPOSIT = 1000000; // 1 TRX in sun units\n    \n    // Events matching 1inch pattern\n    event EscrowCreated(\n        address indexed maker,\n        address indexed taker,\n        address indexed token,\n        uint256 amount,\n        bytes32 hashlock,\n        uint256 withdrawStart,\n        uint256 cancelStart\n    );\n    \n    event EscrowWithdrawal(\n        address indexed taker,\n        bytes32 secret\n    );\n    \n    event EscrowCancelled(\n        address indexed maker\n    );\n    \n    // Custom errors for gas efficiency\n    error InvalidCaller();\n    error InvalidSecret();\n    error InvalidTime();\n    error InvalidAmount();\n    error InvalidState();\n    error InsufficientSafetyDeposit();\n    error TokenTransferFailed();\n    \n    /**\n     * @dev Constructor creates and initializes the escrow\n     * @param _taker Address that can unlock the escrow with correct secret\n     * @param _token TRC-20 token contract address\n     * @param _amount Amount of tokens to lock\n     * @param _hashlock keccak256 hash of the secret\n     * @param _withdrawDelay Seconds until withdrawal is allowed (e.g., 7200 = 2 hours)\n     * @param _cancelDelay Seconds until cancellation is allowed (e.g., 14400 = 4 hours)\n     */\n    constructor(\n        address _taker,\n        address _token,\n        uint256 _amount,\n        bytes32 _hashlock,\n        uint256 _withdrawDelay,\n        uint256 _cancelDelay\n    ) payable {\n        // Validation\n        require(_taker != address(0), \"Invalid taker address\");\n        require(_token != address(0), \"Invalid token address\");\n        require(_amount > 0, \"Amount must be greater than zero\");\n        require(_hashlock != bytes32(0), \"Invalid hashlock\");\n        require(_cancelDelay > _withdrawDelay, \"Cancel delay must be after withdraw delay\");\n        require(msg.value >= MINIMUM_SAFETY_DEPOSIT, \"Insufficient safety deposit\");\n        \n        // Initialize escrow data\n        escrow = EscrowData({\n            maker: msg.sender,\n            taker: _taker,\n            token: _token,\n            amount: _amount,\n            hashlock: _hashlock,\n            withdrawStart: block.timestamp + _withdrawDelay,\n            cancelStart: block.timestamp + _cancelDelay,\n            safetyDeposit: msg.value,\n            state: EscrowState.ACTIVE\n        });\n        \n        // Transfer tokens from maker to this contract\n        require(\n            ITRC20(_token).transferFrom(msg.sender, address(this), _amount),\n            \"Token transfer failed\"\n        );\n        \n        emit EscrowCreated(\n            msg.sender,\n            _taker,\n            _token,\n            _amount,\n            _hashlock,\n            escrow.withdrawStart,\n            escrow.cancelStart\n        );\n    }\n    \n    /**\n     * @dev Taker withdraws tokens by providing the correct secret\n     * @param secret The secret that unlocks the escrow\n     */\n    function withdraw(bytes32 secret) external {\n        // Validation checks\n        if (escrow.state != EscrowState.ACTIVE) revert InvalidState();\n        if (msg.sender != escrow.taker) revert InvalidCaller();\n        if (block.timestamp < escrow.withdrawStart) revert InvalidTime();\n        if (block.timestamp >= escrow.cancelStart) revert InvalidTime();\n        if (keccak256(abi.encodePacked(secret)) != escrow.hashlock) revert InvalidSecret();\n        \n        // Update state\n        escrow.state = EscrowState.WITHDRAWN;\n        \n        // Transfer tokens to taker\n        require(\n            ITRC20(escrow.token).transfer(escrow.taker, escrow.amount),\n            \"Token transfer to taker failed\"\n        );\n        \n        // Return safety deposit to maker\n        payable(escrow.maker).transfer(escrow.safetyDeposit);\n        \n        emit EscrowWithdrawal(escrow.taker, secret);\n    }\n    \n    /**\n     * @dev Maker cancels the escrow after the cancellation period\n     */\n    function cancel() external {\n        // Validation checks\n        if (escrow.state != EscrowState.ACTIVE) revert InvalidState();\n        if (msg.sender != escrow.maker) revert InvalidCaller();\n        if (block.timestamp < escrow.cancelStart) revert InvalidTime();\n        \n        // Update state\n        escrow.state = EscrowState.CANCELLED;\n        \n        // Return tokens to maker\n        require(\n            ITRC20(escrow.token).transfer(escrow.maker, escrow.amount),\n            \"Token transfer to maker failed\"\n        );\n        \n        // Return safety deposit to maker\n        payable(escrow.maker).transfer(escrow.safetyDeposit);\n        \n        emit EscrowCancelled(escrow.maker);\n    }\n    \n    /*\n     * @dev View function to get all escrow details\n     * @return All escrow data in a single call\n     */\n    function getEscrowDetails() external view returns (\n        address maker,\n        address taker,\n        address token,\n        uint256 amount,\n        bytes32 hashlock,\n        uint256 withdrawStart,\n        uint256 cancelStart,\n        uint256 safetyDeposit,\n        EscrowState state\n    ) {\n        return (\n            escrow.maker,\n            escrow.taker,\n            escrow.token,\n            escrow.amount,\n            escrow.hashlock,\n            escrow.withdrawStart,\n            escrow.cancelStart,\n            escrow.safetyDeposit,\n            escrow.state\n        );\n    }\n    \n    /**\n     * @dev Check if withdrawal is currently possible\n     * @return true if withdrawal window is open\n     */\n    function canWithdraw() external view returns (bool) {\n        return escrow.state == EscrowState.ACTIVE && \n               block.timestamp >= escrow.withdrawStart && \n               block.timestamp < escrow.cancelStart;\n    }\n    \n    /**\n     * @dev Check if cancellation is currently possible\n     * @return true if cancellation is allowed\n     */\n    function canCancel() external view returns (bool) {\n        return escrow.state == EscrowState.ACTIVE && \n               block.timestamp >= escrow.cancelStart;\n    }\n}\n",
  "sourcePath": "/home/ubu24/1inch/tron/contracts/TronEscrowSimplified.sol",
  "compiler": {
    "name": "solc",
    "version": "0.8.6+commit.0e36fba0.mod.Emscripten.clang"
  },
  "schemaVersion": "2.0.1",
  "updatedAt": "2025-07-27T15:54:14.270Z"
}